{
  "contractName": "FlowInsightMarketplace",
  "abi": [
    {
      "inputs": [
        {
          "internalType": "address",
          "name": "_vault",
          "type": "address"
        },
        {
          "internalType": "address",
          "name": "_flowInsightNFT",
          "type": "address"
        }
      ],
      "stateMutability": "nonpayable",
      "type": "constructor"
    },
    {
      "anonymous": false,
      "inputs": [
        {
          "indexed": true,
          "internalType": "uint256",
          "name": "paymentId",
          "type": "uint256"
        },
        {
          "indexed": true,
          "internalType": "uint256",
          "name": "nftId",
          "type": "uint256"
        },
        {
          "indexed": false,
          "internalType": "address",
          "name": "buyer",
          "type": "address"
        },
        {
          "indexed": false,
          "internalType": "address",
          "name": "token",
          "type": "address"
        },
        {
          "indexed": false,
          "internalType": "uint256",
          "name": "price",
          "type": "uint256"
        }
      ],
      "name": "PaymentCreated",
      "type": "event"
    },
    {
      "anonymous": false,
      "inputs": [
        {
          "indexed": true,
          "internalType": "uint256",
          "name": "paymentId",
          "type": "uint256"
        },
        {
          "indexed": true,
          "internalType": "uint256",
          "name": "nftId",
          "type": "uint256"
        },
        {
          "indexed": false,
          "internalType": "address",
          "name": "owner",
          "type": "address"
        }
      ],
      "name": "TradeComfirmed",
      "type": "event"
    },
    {
      "stateMutability": "payable",
      "type": "receive",
      "payable": true
    },
    {
      "inputs": [
        {
          "internalType": "uint256",
          "name": "_nftId",
          "type": "uint256"
        }
      ],
      "name": "registerNFTSale",
      "outputs": [],
      "stateMutability": "nonpayable",
      "type": "function"
    },
    {
      "inputs": [
        {
          "internalType": "uint256",
          "name": "_nftId",
          "type": "uint256"
        }
      ],
      "name": "makeOfferWithETH",
      "outputs": [],
      "stateMutability": "payable",
      "type": "function",
      "payable": true
    },
    {
      "inputs": [
        {
          "internalType": "uint256",
          "name": "_nftId",
          "type": "uint256"
        },
        {
          "internalType": "uint256",
          "name": "_tokenAmount",
          "type": "uint256"
        }
      ],
      "name": "makeOfferWithToken",
      "outputs": [],
      "stateMutability": "nonpayable",
      "type": "function"
    },
    {
      "inputs": [
        {
          "internalType": "uint256",
          "name": "_nftId",
          "type": "uint256"
        },
        {
          "internalType": "uint256",
          "name": "_paymentId",
          "type": "uint256"
        }
      ],
      "name": "confirmTrade",
      "outputs": [],
      "stateMutability": "nonpayable",
      "type": "function"
    }
  ],
  "bytecode": "0x60806040523480156200001157600080fd5b50604051620014f5380380620014f583398181016040528101906200003791906200012b565b81600160006101000a81548173ffffffffffffffffffffffffffffffffffffffff021916908373ffffffffffffffffffffffffffffffffffffffff16021790555080600260006101000a81548173ffffffffffffffffffffffffffffffffffffffff021916908373ffffffffffffffffffffffffffffffffffffffff160217905550505062000172565b600080fd5b600073ffffffffffffffffffffffffffffffffffffffff82169050919050565b6000620000f382620000c6565b9050919050565b6200010581620000e6565b81146200011157600080fd5b50565b6000815190506200012581620000fa565b92915050565b60008060408385031215620001455762000144620000c1565b5b6000620001558582860162000114565b9250506020620001688582860162000114565b9150509250929050565b61137380620001826000396000f3fe6080604052600436106100435760003560e01c806378ea7771146100ad57806383838d37146100d6578063cb00fc83146100f2578063fa3305c91461011b576100a8565b366100a857600160009054906101000a900473ffffffffffffffffffffffffffffffffffffffff1673ffffffffffffffffffffffffffffffffffffffff163373ffffffffffffffffffffffffffffffffffffffff16146100a6576100a5610e54565b5b005b600080fd5b3480156100b957600080fd5b506100d460048036038101906100cf9190610ebe565b610144565b005b6100f060048036038101906100eb9190610efe565b61052c565b005b3480156100fe57600080fd5b5061011960048036038101906101149190610ebe565b610909565b005b34801561012757600080fd5b50610142600480360381019061013d9190610efe565b610a6d565b005b81600260009054906101000a900473ffffffffffffffffffffffffffffffffffffffff1673ffffffffffffffffffffffffffffffffffffffff16636352211e826040518263ffffffff1660e01b81526004016101a09190610f3a565b602060405180830381865afa1580156101bd573d6000803e3d6000fd5b505050506040513d601f19601f820116820180604052508101906101e19190610fb3565b73ffffffffffffffffffffffffffffffffffffffff163373ffffffffffffffffffffffffffffffffffffffff161461024e576040517f08c379a00000000000000000000000000000000000000000000000000000000081526004016102459061103d565b60405180910390fd5b610256610d8c565b15610296576040517f08c379a000000000000000000000000000000000000000000000000000000000815260040161028d906110cf565b60405180910390fd5b61029e610df0565b156102de576040517f08c379a00000000000000000000000000000000000000000000000000000000081526004016102d5906110cf565b60405180910390fd5b600160009054906101000a900473ffffffffffffffffffffffffffffffffffffffff1673ffffffffffffffffffffffffffffffffffffffff16638894c4468484600260009054906101000a900473ffffffffffffffffffffffffffffffffffffffff166040518463ffffffff1660e01b815260040161035f939291906110fe565b600060405180830381600087803b15801561037957600080fd5b505af115801561038d573d6000803e3d6000fd5b50505050600160009054906101000a900473ffffffffffffffffffffffffffffffffffffffff1673ffffffffffffffffffffffffffffffffffffffff166392e4b8a4836040518263ffffffff1660e01b81526004016103ec9190610f3a565b600060405180830381600087803b15801561040657600080fd5b505af115801561041a573d6000803e3d6000fd5b5050505082827f6b9a771b5f9eda343a9346e15dcbfb7ed2a9682ff0f8b1364e7b553df99eb40f3360405161044f9190611135565b60405180910390a3600160008043815260200190815260200160002060003273ffffffffffffffffffffffffffffffffffffffff1673ffffffffffffffffffffffffffffffffffffffff16815260200190815260200160002060006101000a81548160ff021916908315150217905550600160008043815260200190815260200160002060003373ffffffffffffffffffffffffffffffffffffffff1673ffffffffffffffffffffffffffffffffffffffff16815260200190815260200160002060006101000a81548160ff021916908315150217905550505050565b610534610d8c565b15610574576040517f08c379a000000000000000000000000000000000000000000000000000000000815260040161056b906110cf565b60405180910390fd5b61057c610df0565b156105bc576040517f08c379a00000000000000000000000000000000000000000000000000000000081526004016105b3906110cf565b60405180910390fd5b6000600260009054906101000a900473ffffffffffffffffffffffffffffffffffffffff1673ffffffffffffffffffffffffffffffffffffffff16636352211e836040518263ffffffff1660e01b81526004016106199190610f3a565b602060405180830381865afa158015610636573d6000803e3d6000fd5b505050506040513d601f19601f8201168201806040525081019061065a9190610fb3565b90508073ffffffffffffffffffffffffffffffffffffffff163373ffffffffffffffffffffffffffffffffffffffff16036106ca576040517f08c379a00000000000000000000000000000000000000000000000000000000081526004016106c19061119c565b60405180910390fd5b6000600160009054906101000a900473ffffffffffffffffffffffffffffffffffffffff1673ffffffffffffffffffffffffffffffffffffffff1663bac3524333843460006040518563ffffffff1660e01b815260040161072e9493929190611201565b6020604051808303816000875af115801561074d573d6000803e3d6000fd5b505050506040513d601f19601f82011682018060405250810190610771919061125b565b9050600160009054906101000a900473ffffffffffffffffffffffffffffffffffffffff1673ffffffffffffffffffffffffffffffffffffffff1663a3912ec8346040518263ffffffff1660e01b81526004016000604051808303818588803b1580156107dd57600080fd5b505af11580156107f1573d6000803e3d6000fd5b505050505082817f29f7bb35c75fa86cef92e8cae18f960107f96ab170f4b4daeeb68bb875f56d363360003460405161082c93929190611288565b60405180910390a35050600160008043815260200190815260200160002060003273ffffffffffffffffffffffffffffffffffffffff1673ffffffffffffffffffffffffffffffffffffffff16815260200190815260200160002060006101000a81548160ff021916908315150217905550600160008043815260200190815260200160002060003373ffffffffffffffffffffffffffffffffffffffff1673ffffffffffffffffffffffffffffffffffffffff16815260200190815260200160002060006101000a81548160ff02191690831515021790555050565b610911610d8c565b15610951576040517f08c379a0000000000000000000000000000000000000000000000000000000008152600401610948906110cf565b60405180910390fd5b610959610df0565b15610999576040517f08c379a0000000000000000000000000000000000000000000000000000000008152600401610990906110cf565b60405180910390fd5b600160008043815260200190815260200160002060003273ffffffffffffffffffffffffffffffffffffffff1673ffffffffffffffffffffffffffffffffffffffff16815260200190815260200160002060006101000a81548160ff021916908315150217905550600160008043815260200190815260200160002060003373ffffffffffffffffffffffffffffffffffffffff1673ffffffffffffffffffffffffffffffffffffffff16815260200190815260200160002060006101000a81548160ff0219169083151502179055505050565b80600260009054906101000a900473ffffffffffffffffffffffffffffffffffffffff1673ffffffffffffffffffffffffffffffffffffffff16636352211e826040518263ffffffff1660e01b8152600401610ac99190610f3a565b602060405180830381865afa158015610ae6573d6000803e3d6000fd5b505050506040513d601f19601f82011682018060405250810190610b0a9190610fb3565b73ffffffffffffffffffffffffffffffffffffffff163373ffffffffffffffffffffffffffffffffffffffff1614610b77576040517f08c379a0000000000000000000000000000000000000000000000000000000008152600401610b6e9061103d565b60405180910390fd5b610b7f610d8c565b15610bbf576040517f08c379a0000000000000000000000000000000000000000000000000000000008152600401610bb6906110cf565b60405180910390fd5b610bc7610df0565b15610c07576040517f08c379a0000000000000000000000000000000000000000000000000000000008152600401610bfe906110cf565b60405180910390fd5b600260009054906101000a900473ffffffffffffffffffffffffffffffffffffffff1673ffffffffffffffffffffffffffffffffffffffff1663095ea7b3600160009054906101000a900473ffffffffffffffffffffffffffffffffffffffff16846040518363ffffffff1660e01b8152600401610c86929190611314565b600060405180830381600087803b158015610ca057600080fd5b505af1158015610cb4573d6000803e3d6000fd5b50505050600160008043815260200190815260200160002060003273ffffffffffffffffffffffffffffffffffffffff1673ffffffffffffffffffffffffffffffffffffffff16815260200190815260200160002060006101000a81548160ff021916908315150217905550600160008043815260200190815260200160002060003373ffffffffffffffffffffffffffffffffffffffff1673ffffffffffffffffffffffffffffffffffffffff16815260200190815260200160002060006101000a81548160ff0219169083151502179055505050565b600080600043815260200190815260200160002060003273ffffffffffffffffffffffffffffffffffffffff1673ffffffffffffffffffffffffffffffffffffffff16815260200190815260200160002060009054906101000a900460ff16905090565b600080600043815260200190815260200160002060003373ffffffffffffffffffffffffffffffffffffffff1673ffffffffffffffffffffffffffffffffffffffff16815260200190815260200160002060009054906101000a900460ff16905090565b7f4e487b7100000000000000000000000000000000000000000000000000000000600052600160045260246000fd5b600080fd5b6000819050919050565b610e9b81610e88565b8114610ea657600080fd5b50565b600081359050610eb881610e92565b92915050565b60008060408385031215610ed557610ed4610e83565b5b6000610ee385828601610ea9565b9250506020610ef485828601610ea9565b9150509250929050565b600060208284031215610f1457610f13610e83565b5b6000610f2284828501610ea9565b91505092915050565b610f3481610e88565b82525050565b6000602082019050610f4f6000830184610f2b565b92915050565b600073ffffffffffffffffffffffffffffffffffffffff82169050919050565b6000610f8082610f55565b9050919050565b610f9081610f75565b8114610f9b57600080fd5b50565b600081519050610fad81610f87565b92915050565b600060208284031215610fc957610fc8610e83565b5b6000610fd784828501610f9e565b91505092915050565b600082825260208201905092915050565b7f6e6f74204e4654206f776e657200000000000000000000000000000000000000600082015250565b6000611027600d83610fe0565b915061103282610ff1565b602082019050919050565b600060208201905081810360008301526110568161101a565b9050919050565b7f436f6e747261637447756172643a206f6e6520626c6f636b2c206f6e6520667560008201527f6e6374696f6e0000000000000000000000000000000000000000000000000000602082015250565b60006110b9602683610fe0565b91506110c48261105d565b604082019050919050565b600060208201905081810360008301526110e8816110ac565b9050919050565b6110f881610f75565b82525050565b60006060820190506111136000830186610f2b565b6111206020830185610f2b565b61112d60408301846110ef565b949350505050565b600060208201905061114a60008301846110ef565b92915050565b7f63616e6e6f74207075726368617365206f776e204e4654000000000000000000600082015250565b6000611186601783610fe0565b915061119182611150565b602082019050919050565b600060208201905081810360008301526111b581611179565b9050919050565b6000819050919050565b6000819050919050565b60006111eb6111e66111e1846111bc565b6111c6565b610e88565b9050919050565b6111fb816111d0565b82525050565b600060808201905061121660008301876110ef565b61122360208301866110ef565b6112306040830185610f2b565b61123d60608301846111f2565b95945050505050565b60008151905061125581610e92565b92915050565b60006020828403121561127157611270610e83565b5b600061127f84828501611246565b91505092915050565b600060608201905061129d60008301866110ef565b6112aa60208301856110ef565b6112b76040830184610f2b565b949350505050565b60006112da6112d56112d084610f55565b6111c6565b610f55565b9050919050565b60006112ec826112bf565b9050919050565b60006112fe826112e1565b9050919050565b61130e816112f3565b82525050565b60006040820190506113296000830185611305565b6113366020830184610f2b565b939250505056fea26469706673582212208ba98410bd358886f4b4b70f7466f33092669ff998b068c6663b53734e3953ad64736f6c634300080d0033",
  "immutableReferences": {},
  "source": "// SPDX-License-Identifier: MIT\npragma solidity >=0.6.10 <0.9.0;\n\nimport { SafeMath } from \"./SafeMath.sol\";\nimport { ContractGuard } from \"./lib/ContractGuard.sol\";\nimport { FlowInsightVault } from \"./FlowInsightVault.sol\";\nimport { FlowInsightERC721NFT } from \"./FlowInsightERC721NFT.sol\";\n\ncontract FlowInsightMarketplace is ContractGuard {\n    using SafeMath for uint256;\n\n    address payable private vault;\n    address private flowInsightNFT;\n\n\n    /* ========== Modifier ========== */\n\n    modifier onlyNFTOwner(uint256 _nftId) {\n        require(msg.sender == FlowInsightERC721NFT(flowInsightNFT).ownerOf(_nftId), \"not NFT owner\");\n        _;\n    }\n\n    /* ========== CONSTRUCTOR ========== */\n\n    constructor(address _vault, address _flowInsightNFT) {\n        vault = payable(_vault);\n        flowInsightNFT = _flowInsightNFT;\n    }\n\n    receive() external payable {\n        assert(msg.sender == vault); // only accept ETH via fallback from the vault contract\n    }\n\n    /* ========== MUTABLE FUNCTIONS ========== */\n\n    function registerNFTSale(uint256 _nftId) external onlyNFTOwner(_nftId) onlyOneBlock {\n        // approve vault to transfer NFT\n        FlowInsightERC721NFT(flowInsightNFT).approve(vault, _nftId);\n    }\n\n    function makeOfferWithETH(uint256 _nftId) external payable onlyOneBlock {\n        address owner = FlowInsightERC721NFT(flowInsightNFT).ownerOf(_nftId);\n        require(msg.sender != owner, \"cannot purchase own NFT\");\n\n        // create payment\n        uint256 paymentId = FlowInsightVault(vault).authorizePayment(msg.sender, owner, msg.value, 0);\n        // ETH send to vault\n        FlowInsightVault(vault).receiveEther{value: msg.value}();\n\n        emit PaymentCreated(paymentId, _nftId, msg.sender, address(0), msg.value);\n    }\n\n    function makeOfferWithToken(uint256 _nftId, uint256 _tokenAmount) external onlyOneBlock {\n        // TODO\n    }\n\n    function confirmTrade(uint256 _nftId, uint256 _paymentId) external onlyNFTOwner(_nftId) onlyOneBlock {\n        // do NFT transfer\n        FlowInsightVault(vault).transferNFT(_nftId, _paymentId, flowInsightNFT);\n        // ETH send to owner from vault\n        FlowInsightVault(vault).collectAuthorizedPayment(_paymentId);\n\n        emit TradeComfirmed(_paymentId, _nftId, msg.sender);\n    }\n\n    /* ========== EVENTS ========== */\n\n    event PaymentCreated(\n        uint256 indexed paymentId, \n        uint256 indexed nftId, \n        address buyer, \n        address token, \n        uint256 price\n    );\n    event TradeComfirmed(\n        uint256 indexed paymentId, \n        uint256 indexed nftId,\n        address owner\n    );\n}\n",
  "sourcePath": "/home/test/truffle-contract/contracts/FlowInsightMarketplace.sol",
  "compiler": {
    "name": "solc",
    "version": "0.8.13+commit.abaa5c0e.Emscripten.clang"
  },
  "schemaVersion": "3.4.6",
  "updatedAt": "2022-05-27T02:59:48.234Z",
  "networkType": "ethereum",
  "devdoc": {
    "kind": "dev",
    "methods": {},
    "version": 1
  },
  "userdoc": {
    "kind": "user",
    "methods": {},
    "version": 1
  }
}