{
  "contractName": "FlowInsightVault",
  "abi": [
    {
      "inputs": [
        {
          "internalType": "address",
          "name": "_escapeHatchCaller",
          "type": "address"
        },
        {
          "internalType": "address",
          "name": "_escapeHatchDestination",
          "type": "address"
        },
        {
          "internalType": "uint256",
          "name": "_absoluteMinTimeLock",
          "type": "uint256"
        },
        {
          "internalType": "uint256",
          "name": "_timeLock",
          "type": "uint256"
        },
        {
          "internalType": "address",
          "name": "_securityGuard",
          "type": "address"
        },
        {
          "internalType": "uint256",
          "name": "_maxSecurityGuardDelay",
          "type": "uint256"
        }
      ],
      "stateMutability": "nonpayable",
      "type": "constructor"
    },
    {
      "anonymous": false,
      "inputs": [
        {
          "indexed": false,
          "internalType": "uint256",
          "name": "amount",
          "type": "uint256"
        }
      ],
      "name": "EscapeHatchCalled",
      "type": "event"
    },
    {
      "anonymous": false,
      "inputs": [
        {
          "indexed": true,
          "internalType": "address",
          "name": "from",
          "type": "address"
        },
        {
          "indexed": false,
          "internalType": "uint256",
          "name": "amount",
          "type": "uint256"
        }
      ],
      "name": "EtherReceived",
      "type": "event"
    },
    {
      "anonymous": false,
      "inputs": [
        {
          "indexed": true,
          "internalType": "address",
          "name": "marketplace",
          "type": "address"
        },
        {
          "indexed": false,
          "internalType": "bool",
          "name": "authorized",
          "type": "bool"
        }
      ],
      "name": "MarketplaceAuthorization",
      "type": "event"
    },
    {
      "anonymous": false,
      "inputs": [
        {
          "indexed": true,
          "internalType": "address",
          "name": "oldOwner",
          "type": "address"
        },
        {
          "indexed": true,
          "internalType": "address",
          "name": "newOwner",
          "type": "address"
        }
      ],
      "name": "NewOwner",
      "type": "event"
    },
    {
      "anonymous": false,
      "inputs": [
        {
          "indexed": true,
          "internalType": "uint256",
          "name": "idPayment",
          "type": "uint256"
        },
        {
          "indexed": true,
          "internalType": "address",
          "name": "recipient",
          "type": "address"
        },
        {
          "indexed": false,
          "internalType": "address",
          "name": "token",
          "type": "address"
        },
        {
          "indexed": false,
          "internalType": "uint256",
          "name": "amount",
          "type": "uint256"
        }
      ],
      "name": "PaymentAuthorized",
      "type": "event"
    },
    {
      "anonymous": false,
      "inputs": [
        {
          "indexed": true,
          "internalType": "uint256",
          "name": "idPayment",
          "type": "uint256"
        }
      ],
      "name": "PaymentCanceled",
      "type": "event"
    },
    {
      "anonymous": false,
      "inputs": [
        {
          "indexed": true,
          "internalType": "uint256",
          "name": "idPayment",
          "type": "uint256"
        },
        {
          "indexed": true,
          "internalType": "address",
          "name": "recipient",
          "type": "address"
        },
        {
          "indexed": false,
          "internalType": "address",
          "name": "token",
          "type": "address"
        },
        {
          "indexed": false,
          "internalType": "uint256",
          "name": "amount",
          "type": "uint256"
        }
      ],
      "name": "PaymentExecuted",
      "type": "event"
    },
    {
      "inputs": [],
      "name": "absoluteMinTimeLock",
      "outputs": [
        {
          "internalType": "uint256",
          "name": "",
          "type": "uint256"
        }
      ],
      "stateMutability": "view",
      "type": "function",
      "constant": true
    },
    {
      "inputs": [
        {
          "internalType": "address",
          "name": "",
          "type": "address"
        }
      ],
      "name": "allowedMarketplace",
      "outputs": [
        {
          "internalType": "bool",
          "name": "",
          "type": "bool"
        }
      ],
      "stateMutability": "view",
      "type": "function",
      "constant": true
    },
    {
      "inputs": [
        {
          "internalType": "uint256",
          "name": "",
          "type": "uint256"
        }
      ],
      "name": "authorizedPayments",
      "outputs": [
        {
          "internalType": "address payable",
          "name": "buyer",
          "type": "address"
        },
        {
          "internalType": "uint256",
          "name": "earliestPayTime",
          "type": "uint256"
        },
        {
          "internalType": "bool",
          "name": "canceled",
          "type": "bool"
        },
        {
          "internalType": "bool",
          "name": "paid",
          "type": "bool"
        },
        {
          "internalType": "address payable",
          "name": "recipient",
          "type": "address"
        },
        {
          "internalType": "address",
          "name": "token",
          "type": "address"
        },
        {
          "internalType": "uint256",
          "name": "amount",
          "type": "uint256"
        },
        {
          "internalType": "uint256",
          "name": "securityGuardDelay",
          "type": "uint256"
        }
      ],
      "stateMutability": "view",
      "type": "function",
      "constant": true
    },
    {
      "inputs": [
        {
          "internalType": "address",
          "name": "_newEscapeHatchCaller",
          "type": "address"
        }
      ],
      "name": "changeEscapeCaller",
      "outputs": [],
      "stateMutability": "nonpayable",
      "type": "function"
    },
    {
      "inputs": [
        {
          "internalType": "address",
          "name": "_newOwner",
          "type": "address"
        }
      ],
      "name": "changeOwner",
      "outputs": [],
      "stateMutability": "nonpayable",
      "type": "function"
    },
    {
      "inputs": [],
      "name": "escapeHatch",
      "outputs": [],
      "stateMutability": "nonpayable",
      "type": "function"
    },
    {
      "inputs": [],
      "name": "escapeHatchCaller",
      "outputs": [
        {
          "internalType": "address",
          "name": "",
          "type": "address"
        }
      ],
      "stateMutability": "view",
      "type": "function",
      "constant": true
    },
    {
      "inputs": [],
      "name": "escapeHatchDestination",
      "outputs": [
        {
          "internalType": "address",
          "name": "",
          "type": "address"
        }
      ],
      "stateMutability": "view",
      "type": "function",
      "constant": true
    },
    {
      "inputs": [],
      "name": "maxSecurityGuardDelay",
      "outputs": [
        {
          "internalType": "uint256",
          "name": "",
          "type": "uint256"
        }
      ],
      "stateMutability": "view",
      "type": "function",
      "constant": true
    },
    {
      "inputs": [],
      "name": "owner",
      "outputs": [
        {
          "internalType": "address",
          "name": "",
          "type": "address"
        }
      ],
      "stateMutability": "view",
      "type": "function",
      "constant": true
    },
    {
      "inputs": [],
      "name": "securityGuard",
      "outputs": [
        {
          "internalType": "address",
          "name": "",
          "type": "address"
        }
      ],
      "stateMutability": "view",
      "type": "function",
      "constant": true
    },
    {
      "inputs": [],
      "name": "timeLock",
      "outputs": [
        {
          "internalType": "uint256",
          "name": "",
          "type": "uint256"
        }
      ],
      "stateMutability": "view",
      "type": "function",
      "constant": true
    },
    {
      "stateMutability": "payable",
      "type": "receive",
      "payable": true
    },
    {
      "inputs": [],
      "name": "numberOfAuthorizedPayments",
      "outputs": [
        {
          "internalType": "uint256",
          "name": "",
          "type": "uint256"
        }
      ],
      "stateMutability": "view",
      "type": "function",
      "constant": true
    },
    {
      "inputs": [],
      "name": "getBalance",
      "outputs": [
        {
          "internalType": "uint256",
          "name": "",
          "type": "uint256"
        }
      ],
      "stateMutability": "view",
      "type": "function",
      "constant": true
    },
    {
      "inputs": [],
      "name": "receiveEther",
      "outputs": [],
      "stateMutability": "payable",
      "type": "function",
      "payable": true
    },
    {
      "inputs": [
        {
          "internalType": "address",
          "name": "_buyer",
          "type": "address"
        },
        {
          "internalType": "address",
          "name": "_recipient",
          "type": "address"
        },
        {
          "internalType": "uint256",
          "name": "_amount",
          "type": "uint256"
        },
        {
          "internalType": "uint256",
          "name": "_paymentDelay",
          "type": "uint256"
        }
      ],
      "name": "authorizePayment",
      "outputs": [
        {
          "internalType": "uint256",
          "name": "",
          "type": "uint256"
        }
      ],
      "stateMutability": "nonpayable",
      "type": "function"
    },
    {
      "inputs": [
        {
          "internalType": "uint256",
          "name": "_idPayment",
          "type": "uint256"
        }
      ],
      "name": "collectAuthorizedPayment",
      "outputs": [],
      "stateMutability": "nonpayable",
      "type": "function"
    },
    {
      "inputs": [
        {
          "internalType": "uint256",
          "name": "_nftId",
          "type": "uint256"
        },
        {
          "internalType": "uint256",
          "name": "_idPayment",
          "type": "uint256"
        },
        {
          "internalType": "address",
          "name": "_flowInsightNFT",
          "type": "address"
        }
      ],
      "name": "transferNFT",
      "outputs": [],
      "stateMutability": "nonpayable",
      "type": "function"
    },
    {
      "inputs": [
        {
          "internalType": "uint256",
          "name": "_idPayment",
          "type": "uint256"
        }
      ],
      "name": "cancelPayment",
      "outputs": [],
      "stateMutability": "nonpayable",
      "type": "function"
    },
    {
      "inputs": [
        {
          "internalType": "uint256",
          "name": "_idPayment",
          "type": "uint256"
        },
        {
          "internalType": "uint256",
          "name": "_delay",
          "type": "uint256"
        }
      ],
      "name": "delayPayment",
      "outputs": [],
      "stateMutability": "nonpayable",
      "type": "function"
    },
    {
      "inputs": [
        {
          "internalType": "address",
          "name": "_marketplace",
          "type": "address"
        },
        {
          "internalType": "bool",
          "name": "_authorize",
          "type": "bool"
        }
      ],
      "name": "authorizeMarketplace",
      "outputs": [],
      "stateMutability": "nonpayable",
      "type": "function"
    },
    {
      "inputs": [
        {
          "internalType": "address",
          "name": "_newSecurityGuard",
          "type": "address"
        }
      ],
      "name": "setSecurityGuard",
      "outputs": [],
      "stateMutability": "nonpayable",
      "type": "function"
    },
    {
      "inputs": [
        {
          "internalType": "uint256",
          "name": "_newTimeLock",
          "type": "uint256"
        }
      ],
      "name": "setTimelock",
      "outputs": [],
      "stateMutability": "nonpayable",
      "type": "function"
    },
    {
      "inputs": [
        {
          "internalType": "uint256",
          "name": "_maxSecurityGuardDelay",
          "type": "uint256"
        }
      ],
      "name": "setMaxSecurityGuardDelay",
      "outputs": [],
      "stateMutability": "nonpayable",
      "type": "function"
    }
  ],
  "bytecode": "0x60806040523480156200001157600080fd5b50604051620024c2380380620024c2833981810160405281019062000037919062000204565b8585336000806101000a81548173ffffffffffffffffffffffffffffffffffffffff021916908373ffffffffffffffffffffffffffffffffffffffff16021790555081600160006101000a81548173ffffffffffffffffffffffffffffffffffffffff021916908373ffffffffffffffffffffffffffffffffffffffff16021790555080600260006101000a81548173ffffffffffffffffffffffffffffffffffffffff021916908373ffffffffffffffffffffffffffffffffffffffff1602179055505050836005819055508260068190555081600460006101000a81548173ffffffffffffffffffffffffffffffffffffffff021916908373ffffffffffffffffffffffffffffffffffffffff16021790555080600781905550505050505050620002a0565b600080fd5b600073ffffffffffffffffffffffffffffffffffffffff82169050919050565b6000620001918262000164565b9050919050565b620001a38162000184565b8114620001af57600080fd5b50565b600081519050620001c38162000198565b92915050565b6000819050919050565b620001de81620001c9565b8114620001ea57600080fd5b50565b600081519050620001fe81620001d3565b92915050565b60008060008060008060c087890312156200022457620002236200015f565b5b60006200023489828a01620001b2565b96505060206200024789828a01620001b2565b95505060406200025a89828a01620001ed565b94505060606200026d89828a01620001ed565b93505060806200028089828a01620001b2565b92505060a06200029389828a01620001ed565b9150509295509295509295565b61221280620002b06000396000f3fe60806040526004361061014f5760003560e01c806392e4b8a4116100b6578063bb2a51d11161006f578063bb2a51d11461044f578063c281a67014610478578063d085835a146104b5578063da4793ac146104e0578063ea8a66c714610509578063f5b61230146105345761015e565b806392e4b8a414610347578063a0927a6a14610370578063a3912ec8146103b4578063a6f9dae1146103be578063b2ca3ec4146103e7578063bac35243146104125761015e565b8063681617c711610108578063681617c71461024d57806368b8c5a1146102765780638422927d146102a1578063846a5dde146102ca5780638894c446146102f35780638da5cb5b1461031c5761015e565b80630b2e74231461016357806312065fe01461018e5780631554611f146101b95780631e891c0a146101d05780631f6eb6e7146101f95780634e0799b3146102245761015e565b3661015e5761015c61055f565b005b600080fd5b34801561016f57600080fd5b506101786105af565b60405161018591906119fb565b60405180910390f35b34801561019a57600080fd5b506101a36105b5565b6040516101b091906119fb565b60405180910390f35b3480156101c557600080fd5b506101ce6105bd565b005b3480156101dc57600080fd5b506101f760048036038101906101f29190611a47565b61070c565b005b34801561020557600080fd5b5061020e6107b3565b60405161021b9190611ab5565b60405180910390f35b34801561023057600080fd5b5061024b60048036038101906102469190611b34565b6107d9565b005b34801561025957600080fd5b50610274600480360381019061026f9190611b74565b610910565b005b34801561028257600080fd5b5061028b610a04565b60405161029891906119fb565b60405180910390f35b3480156102ad57600080fd5b506102c860048036038101906102c39190611a47565b610a11565b005b3480156102d657600080fd5b506102f160048036038101906102ec9190611ba1565b610b5a565b005b3480156102ff57600080fd5b5061031a60048036038101906103159190611be1565b610cc5565b005b34801561032857600080fd5b50610331610f9d565b60405161033e9190611ab5565b60405180910390f35b34801561035357600080fd5b5061036e60048036038101906103699190611a47565b610fc1565b005b34801561037c57600080fd5b5061039760048036038101906103929190611a47565b6112da565b6040516103ab989796959493929190611c64565b60405180910390f35b6103bc61055f565b005b3480156103ca57600080fd5b506103e560048036038101906103e09190611b74565b6113ac565b005b3480156103f357600080fd5b506103fc6114d7565b6040516104099190611ab5565b60405180910390f35b34801561041e57600080fd5b5061043960048036038101906104349190611ce2565b6114fd565b60405161044691906119fb565b60405180910390f35b34801561045b57600080fd5b5061047660048036038101906104719190611b74565b611826565b005b34801561048457600080fd5b5061049f600480360381019061049a9190611b74565b6118f8565b6040516104ac9190611d49565b60405180910390f35b3480156104c157600080fd5b506104ca611918565b6040516104d791906119fb565b60405180910390f35b3480156104ec57600080fd5b5061050760048036038101906105029190611a47565b61191e565b005b34801561051557600080fd5b5061051e6119b6565b60405161052b91906119fb565b60405180910390f35b34801561054057600080fd5b506105496119bc565b6040516105569190611ab5565b60405180910390f35b3373ffffffffffffffffffffffffffffffffffffffff167f1e57e3bb474320be3d2c77138f75b7c3941292d647f5f9634e33a8e94e0e069b346040516105a591906119fb565b60405180910390a2565b60075481565b600047905090565b600160009054906101000a900473ffffffffffffffffffffffffffffffffffffffff1673ffffffffffffffffffffffffffffffffffffffff163373ffffffffffffffffffffffffffffffffffffffff161480610664575060008054906101000a900473ffffffffffffffffffffffffffffffffffffffff1673ffffffffffffffffffffffffffffffffffffffff163373ffffffffffffffffffffffffffffffffffffffff16145b61066d57600080fd5b6000479050600260009054906101000a900473ffffffffffffffffffffffffffffffffffffffff1673ffffffffffffffffffffffffffffffffffffffff166108fc829081150290604051600060405180830381858888f193505050506106d257600080fd5b7f3a7a1ba90aaa86fa9f6b921c3d600a5c870f8ebd05e7fbd30f93930f3caa5db58160405161070191906119fb565b60405180910390a150565b60008054906101000a900473ffffffffffffffffffffffffffffffffffffffff1673ffffffffffffffffffffffffffffffffffffffff163373ffffffffffffffffffffffffffffffffffffffff161461079a576040517f08c379a000000000000000000000000000000000000000000000000000000000815260040161079190611dc1565b60405180910390fd5b6005548110156107a957600080fd5b8060068190555050565b600160009054906101000a900473ffffffffffffffffffffffffffffffffffffffff1681565b60008054906101000a900473ffffffffffffffffffffffffffffffffffffffff1673ffffffffffffffffffffffffffffffffffffffff163373ffffffffffffffffffffffffffffffffffffffff1614610867576040517f08c379a000000000000000000000000000000000000000000000000000000000815260040161085e90611dc1565b60405180910390fd5b80600860008473ffffffffffffffffffffffffffffffffffffffff1673ffffffffffffffffffffffffffffffffffffffff16815260200190815260200160002060006101000a81548160ff0219169083151502179055508173ffffffffffffffffffffffffffffffffffffffff167fe9d643108be17a1b4dead9aa9f0e48c7c48d367284cd3e9279c89661f5ab3967826040516109049190611d49565b60405180910390a25050565b600160009054906101000a900473ffffffffffffffffffffffffffffffffffffffff1673ffffffffffffffffffffffffffffffffffffffff163373ffffffffffffffffffffffffffffffffffffffff1614806109b7575060008054906101000a900473ffffffffffffffffffffffffffffffffffffffff1673ffffffffffffffffffffffffffffffffffffffff163373ffffffffffffffffffffffffffffffffffffffff16145b6109c057600080fd5b80600160006101000a81548173ffffffffffffffffffffffffffffffffffffffff021916908373ffffffffffffffffffffffffffffffffffffffff16021790555050565b6000600380549050905090565b600860003373ffffffffffffffffffffffffffffffffffffffff1673ffffffffffffffffffffffffffffffffffffffff16815260200190815260200160002060009054906101000a900460ff16610a9d576040517f08c379a0000000000000000000000000000000000000000000000000000000008152600401610a9490611e2d565b60405180910390fd5b6003805490508110610aae57600080fd5b600060038281548110610ac457610ac3611e4d565b5b906000526020600020906006020190508060020160009054906101000a900460ff1615610af057600080fd5b8060020160019054906101000a900460ff1615610b0c57600080fd5b60018160020160006101000a81548160ff021916908315150217905550817ffdf197ed54809861dafe0b4d391843652730ac67274c1e9e46db7687dccaa30160405160405180910390a25050565b600460009054906101000a900473ffffffffffffffffffffffffffffffffffffffff1673ffffffffffffffffffffffffffffffffffffffff163373ffffffffffffffffffffffffffffffffffffffff1614610bea576040517f08c379a0000000000000000000000000000000000000000000000000000000008152600401610be190611ec8565b60405180910390fd5b6003805490508210610bfb57600080fd5b670de0b6b3a7640000811115610c1057600080fd5b600060038381548110610c2657610c25611e4d565b5b90600052602060002090600602019050600754828260050154610c499190611f17565b11158015610c6657508060020160019054906101000a900460ff16155b8015610c8157508060020160009054906101000a900460ff16155b610c8a57600080fd5b81816005016000828254610c9e9190611f17565b9250508190555081816001016000828254610cb99190611f17565b92505081905550505050565b600860003373ffffffffffffffffffffffffffffffffffffffff1673ffffffffffffffffffffffffffffffffffffffff16815260200190815260200160002060009054906101000a900460ff16610d51576040517f08c379a0000000000000000000000000000000000000000000000000000000008152600401610d4890611e2d565b60405180910390fd5b6003805490508210610d98576040517f08c379a0000000000000000000000000000000000000000000000000000000008152600401610d8f90611fb9565b60405180910390fd5b600060038381548110610dae57610dad611e4d565b5b9060005260206000209060060201604051806101000160405290816000820160009054906101000a900473ffffffffffffffffffffffffffffffffffffffff1673ffffffffffffffffffffffffffffffffffffffff1673ffffffffffffffffffffffffffffffffffffffff168152602001600182015481526020016002820160009054906101000a900460ff161515151581526020016002820160019054906101000a900460ff161515151581526020016002820160029054906101000a900473ffffffffffffffffffffffffffffffffffffffff1673ffffffffffffffffffffffffffffffffffffffff1673ffffffffffffffffffffffffffffffffffffffff1681526020016003820160009054906101000a900473ffffffffffffffffffffffffffffffffffffffff1673ffffffffffffffffffffffffffffffffffffffff1673ffffffffffffffffffffffffffffffffffffffff1681526020016004820154815260200160058201548152505090508173ffffffffffffffffffffffffffffffffffffffff166323b872dd82608001518360000151876040518463ffffffff1660e01b8152600401610f6593929190612038565b600060405180830381600087803b158015610f7f57600080fd5b505af1158015610f93573d6000803e3d6000fd5b5050505050505050565b60008054906101000a900473ffffffffffffffffffffffffffffffffffffffff1681565b600860003373ffffffffffffffffffffffffffffffffffffffff1673ffffffffffffffffffffffffffffffffffffffff16815260200190815260200160002060009054906101000a900460ff1661104d576040517f08c379a000000000000000000000000000000000000000000000000000000000815260040161104490611e2d565b60405180910390fd5b6003805490508110611094576040517f08c379a000000000000000000000000000000000000000000000000000000000815260040161108b90611fb9565b60405180910390fd5b6000600382815481106110aa576110a9611e4d565b5b9060005260206000209060060201905080600101544210156110cb57600080fd5b8060020160009054906101000a900460ff161561111d576040517f08c379a0000000000000000000000000000000000000000000000000000000008152600401611114906120bb565b60405180910390fd5b8060020160019054906101000a900460ff161561116f576040517f08c379a000000000000000000000000000000000000000000000000000000000815260040161116690612127565b60405180910390fd5b80600401544710156111b6576040517f08c379a00000000000000000000000000000000000000000000000000000000081526004016111ad90612193565b60405180910390fd5b60018160020160016101000a81548160ff0219169083151502179055508060020160029054906101000a900473ffffffffffffffffffffffffffffffffffffffff1673ffffffffffffffffffffffffffffffffffffffff166108fc82600401549081150290604051600060405180830381858888f1935050505061123957600080fd5b8060020160029054906101000a900473ffffffffffffffffffffffffffffffffffffffff1673ffffffffffffffffffffffffffffffffffffffff16827f56cc168be8d9018731d9202799f179ed7ec9fe83ea7b6129d6d3300634d3e6988360030160009054906101000a900473ffffffffffffffffffffffffffffffffffffffff1684600401546040516112ce9291906121b3565b60405180910390a35050565b600381815481106112ea57600080fd5b90600052602060002090600602016000915090508060000160009054906101000a900473ffffffffffffffffffffffffffffffffffffffff16908060010154908060020160009054906101000a900460ff16908060020160019054906101000a900460ff16908060020160029054906101000a900473ffffffffffffffffffffffffffffffffffffffff16908060030160009054906101000a900473ffffffffffffffffffffffffffffffffffffffff16908060040154908060050154905088565b60008054906101000a900473ffffffffffffffffffffffffffffffffffffffff1673ffffffffffffffffffffffffffffffffffffffff163373ffffffffffffffffffffffffffffffffffffffff161461143a576040517f08c379a000000000000000000000000000000000000000000000000000000000815260040161143190611dc1565b60405180910390fd5b806000806101000a81548173ffffffffffffffffffffffffffffffffffffffff021916908373ffffffffffffffffffffffffffffffffffffffff1602179055508073ffffffffffffffffffffffffffffffffffffffff163373ffffffffffffffffffffffffffffffffffffffff167f70aea8d848e8a90fb7661b227dc522eb6395c3dac71b63cb59edd5c9899b236460405160405180910390a350565b600460009054906101000a900473ffffffffffffffffffffffffffffffffffffffff1681565b6000600860003373ffffffffffffffffffffffffffffffffffffffff1673ffffffffffffffffffffffffffffffffffffffff16815260200190815260200160002060009054906101000a900460ff1661158b576040517f08c379a000000000000000000000000000000000000000000000000000000000815260040161158290611e2d565b60405180910390fd5b60006003805490509050670de0b6b3a76400008311156115aa57600080fd5b60006040518061010001604052808873ffffffffffffffffffffffffffffffffffffffff1681526020016006548610156115f157600654426115ec9190611f17565b6115fe565b85426115fd9190611f17565b5b81526020016000151581526020016000151581526020018773ffffffffffffffffffffffffffffffffffffffff168152602001600073ffffffffffffffffffffffffffffffffffffffff16815260200186815260200160008152509050600381908060018154018082558091505060019003906000526020600020906006020160009091909190915060008201518160000160006101000a81548173ffffffffffffffffffffffffffffffffffffffff021916908373ffffffffffffffffffffffffffffffffffffffff1602179055506020820151816001015560408201518160020160006101000a81548160ff02191690831515021790555060608201518160020160016101000a81548160ff02191690831515021790555060808201518160020160026101000a81548173ffffffffffffffffffffffffffffffffffffffff021916908373ffffffffffffffffffffffffffffffffffffffff16021790555060a08201518160030160006101000a81548173ffffffffffffffffffffffffffffffffffffffff021916908373ffffffffffffffffffffffffffffffffffffffff16021790555060c0820151816004015560e082015181600501555050806080015173ffffffffffffffffffffffffffffffffffffffff16827fa40520d6e82b4e2ad6075ad58e179d8558d1cdf5916b7f7c040c063ab89bc5428360a001518460c001516040516118119291906121b3565b60405180910390a38192505050949350505050565b60008054906101000a900473ffffffffffffffffffffffffffffffffffffffff1673ffffffffffffffffffffffffffffffffffffffff163373ffffffffffffffffffffffffffffffffffffffff16146118b4576040517f08c379a00000000000000000000000000000000000000000000000000000000081526004016118ab90611dc1565b60405180910390fd5b80600460006101000a81548173ffffffffffffffffffffffffffffffffffffffff021916908373ffffffffffffffffffffffffffffffffffffffff16021790555050565b60086020528060005260406000206000915054906101000a900460ff1681565b60065481565b60008054906101000a900473ffffffffffffffffffffffffffffffffffffffff1673ffffffffffffffffffffffffffffffffffffffff163373ffffffffffffffffffffffffffffffffffffffff16146119ac576040517f08c379a00000000000000000000000000000000000000000000000000000000081526004016119a390611dc1565b60405180910390fd5b8060078190555050565b60055481565b600260009054906101000a900473ffffffffffffffffffffffffffffffffffffffff1681565b6000819050919050565b6119f5816119e2565b82525050565b6000602082019050611a1060008301846119ec565b92915050565b600080fd5b611a24816119e2565b8114611a2f57600080fd5b50565b600081359050611a4181611a1b565b92915050565b600060208284031215611a5d57611a5c611a16565b5b6000611a6b84828501611a32565b91505092915050565b600073ffffffffffffffffffffffffffffffffffffffff82169050919050565b6000611a9f82611a74565b9050919050565b611aaf81611a94565b82525050565b6000602082019050611aca6000830184611aa6565b92915050565b611ad981611a94565b8114611ae457600080fd5b50565b600081359050611af681611ad0565b92915050565b60008115159050919050565b611b1181611afc565b8114611b1c57600080fd5b50565b600081359050611b2e81611b08565b92915050565b60008060408385031215611b4b57611b4a611a16565b5b6000611b5985828601611ae7565b9250506020611b6a85828601611b1f565b9150509250929050565b600060208284031215611b8a57611b89611a16565b5b6000611b9884828501611ae7565b91505092915050565b60008060408385031215611bb857611bb7611a16565b5b6000611bc685828601611a32565b9250506020611bd785828601611a32565b9150509250929050565b600080600060608486031215611bfa57611bf9611a16565b5b6000611c0886828701611a32565b9350506020611c1986828701611a32565b9250506040611c2a86828701611ae7565b9150509250925092565b6000611c3f82611a74565b9050919050565b611c4f81611c34565b82525050565b611c5e81611afc565b82525050565b600061010082019050611c7a600083018b611c46565b611c87602083018a6119ec565b611c946040830189611c55565b611ca16060830188611c55565b611cae6080830187611c46565b611cbb60a0830186611aa6565b611cc860c08301856119ec565b611cd560e08301846119ec565b9998505050505050505050565b60008060008060808587031215611cfc57611cfb611a16565b5b6000611d0a87828801611ae7565b9450506020611d1b87828801611ae7565b9350506040611d2c87828801611a32565b9250506060611d3d87828801611a32565b91505092959194509250565b6000602082019050611d5e6000830184611c55565b92915050565b600082825260208201905092915050565b7f6e6f74206f776e65720000000000000000000000000000000000000000000000600082015250565b6000611dab600983611d64565b9150611db682611d75565b602082019050919050565b60006020820190508181036000830152611dda81611d9e565b9050919050565b7f6e6f7420616c6c6f776564206d61726b6574706c616365000000000000000000600082015250565b6000611e17601783611d64565b9150611e2282611de1565b602082019050919050565b60006020820190508181036000830152611e4681611e0a565b9050919050565b7f4e487b7100000000000000000000000000000000000000000000000000000000600052603260045260246000fd5b7f6e6f742073656375726974792067756172640000000000000000000000000000600082015250565b6000611eb2601283611d64565b9150611ebd82611e7c565b602082019050919050565b60006020820190508181036000830152611ee181611ea5565b9050919050565b7f4e487b7100000000000000000000000000000000000000000000000000000000600052601160045260246000fd5b6000611f22826119e2565b9150611f2d836119e2565b9250827fffffffffffffffffffffffffffffffffffffffffffffffffffffffffffffffff03821115611f6257611f61611ee8565b5b828201905092915050565b7f696e76616c6964207061796d656e742069640000000000000000000000000000600082015250565b6000611fa3601283611d64565b9150611fae82611f6d565b602082019050919050565b60006020820190508181036000830152611fd281611f96565b9050919050565b6000819050919050565b6000611ffe611ff9611ff484611a74565b611fd9565b611a74565b9050919050565b600061201082611fe3565b9050919050565b600061202282612005565b9050919050565b61203281612017565b82525050565b600060608201905061204d6000830186612029565b61205a6020830185612029565b61206760408301846119ec565b949350505050565b7f7061796d656e742069732063616e63656c656400000000000000000000000000600082015250565b60006120a5601383611d64565b91506120b08261206f565b602082019050919050565b600060208201905081810360008301526120d481612098565b9050919050565b7f7061796d656e7420697320706169640000000000000000000000000000000000600082015250565b6000612111600f83611d64565b915061211c826120db565b602082019050919050565b6000602082019050818103600083015261214081612104565b9050919050565b7f696e73756666696369656e742062616c616e6365000000000000000000000000600082015250565b600061217d601483611d64565b915061218882612147565b602082019050919050565b600060208201905081810360008301526121ac81612170565b9050919050565b60006040820190506121c86000830185611aa6565b6121d560208301846119ec565b939250505056fea26469706673582212205b6c99433469bf54054c6c4816e9545d4b42f99e27c2fabb6293a502b311beb864736f6c634300080d0033",
  "immutableReferences": {},
  "source": "// SPDX-License-Identifier: MIT\npragma solidity >=0.6.10 <0.9.0;\n\nimport { FlowInsightERC721NFT } from \"./FlowInsightERC721NFT.sol\";\n\n/*\n    Copyright 2016, Jordi Baylina\n\n    This program is free software: you can redistribute it and/or modify\n    it under the terms of the GNU General Public License as published by\n    the Free Software Foundation, either version 3 of the License, or\n    (at your option) any later version.\n\n    This program is distributed in the hope that it will be useful,\n    but WITHOUT ANY WARRANTY; without even the implied warranty of\n    MERCHANTABILITY or FITNESS FOR A PARTICULAR PURPOSE.  See the\n    GNU General Public License for more details.\n\n    You should have received a copy of the GNU General Public License\n    along with this program.  If not, see <http://www.gnu.org/licenses/>.\n */\n\n/// @title Vault Contract\n/// @author Jordi Baylina\n/// @notice This contract holds funds for Campaigns and automates payments. For\n///  this iteration the funds will come straight from the Giveth Multisig as a\n///  safety precaution, but once fully tested and optimized this contract will\n///  be a safe place to store funds equipped with optional variable time delays\n///  to allow for an optional escape hatch\n\n/// @dev `Owned` is a base level contract that assigns an `owner` that can be\n///  later changed\ncontract Owned {\n    /// @dev `owner` is the only address that can call a function with this\n    /// modifier\n    modifier onlyOwner { \n        require(msg.sender == owner, \"not owner\"); \n        _; \n    }\n\n    address public owner;\n\n    /// @notice The Constructor assigns the message sender to be `owner`\n    constructor() { owner = msg.sender;}\n\n    /// @notice `owner` can step down and assign some other address to this role\n    /// @param _newOwner The address of the new owner. 0x0 can be used to create\n    ///  an unowned neutral vault, however that cannot be undone\n    function changeOwner(address _newOwner) public onlyOwner {\n        owner = _newOwner;\n        emit NewOwner(msg.sender, _newOwner);\n    }\n\n    event NewOwner(address indexed oldOwner, address indexed newOwner);\n}\n/// @dev `Escapable` is a base level contract built off of the `Owned`\n///  contract that creates an escape hatch function to send its ether to\n///  `escapeHatchDestination` when called by the `escapeHatchCaller` in the case that\n///  something unexpected happens\ncontract Escapable is Owned {\n    address public escapeHatchCaller;\n    address public escapeHatchDestination;\n\n    /// @notice The Constructor assigns the `escapeHatchDestination` and the\n    ///  `escapeHatchCaller`\n    /// @param _escapeHatchDestination The address of a safe location (usu a\n    ///  Multisig) to send the ether held in this contract\n    /// @param _escapeHatchCaller The address of a trusted account or contract to\n    ///  call `escapeHatch()` to send the ether in this contract to the\n    ///  `escapeHatchDestination` it would be ideal that `escapeHatchCaller` cannot move\n    ///  funds out of `escapeHatchDestination`\n    constructor(address _escapeHatchCaller, address _escapeHatchDestination) {\n        escapeHatchCaller = _escapeHatchCaller;\n        escapeHatchDestination = _escapeHatchDestination;\n    }\n\n    /// @dev The addresses preassigned the `escapeHatchCaller` role\n    ///  is the only addresses that can call a function with this modifier\n    modifier onlyEscapeHatchCallerOrOwner {\n        require (msg.sender == escapeHatchCaller || msg.sender == owner);\n        _;\n    }\n\n    /// @notice The `escapeHatch()` should only be called as a last resort if a\n    /// security issue is uncovered or something unexpected happened\n    function escapeHatch() onlyEscapeHatchCallerOrOwner public {\n        uint total = address(this).balance;\n        // Send the total balance of this contract to the `escapeHatchDestination`\n        require (payable(escapeHatchDestination).send(total));\n        emit EscapeHatchCalled(total);\n    }\n    /// @notice Changes the address assigned to call `escapeHatch()`\n    /// @param _newEscapeHatchCaller The address of a trusted account or contract to\n    ///  call `escapeHatch()` to send the ether in this contract to the\n    ///  `escapeHatchDestination` it would be ideal that `escapeHatchCaller` cannot\n    ///  move funds out of `escapeHatchDestination`\n    function changeEscapeCaller(address _newEscapeHatchCaller) onlyEscapeHatchCallerOrOwner public {\n        escapeHatchCaller = _newEscapeHatchCaller;\n    }\n\n    event EscapeHatchCalled(uint amount);\n}\n\n/// @dev `Vault` is a higher level contract built off of the `Escapable`\n///  contract that holds funds for Campaigns and automates payments.\ncontract FlowInsightVault is Escapable {\n\n    /// @dev `Payment` is a public structure that describes the details of\n    ///  each payment making it easy to track the movement of funds\n    ///  transparently\n    struct Payment {\n        address payable buyer;        // Who is making the payments\n        uint earliestPayTime;   // The earliest a payment can be made (Unix Time)\n        bool canceled;         // If True then the payment has been canceled\n        bool paid;              // If True then the payment has been paid\n        address payable recipient;      // Who is receiving the payment\n        address token;          // address(0) when purchase with ETH\n        uint amount;            // The amount of wei sent in the payment\n        uint securityGuardDelay;// The seconds `securityGuard` can delay payment\n    }\n\n    Payment[] public authorizedPayments;\n\n    address public securityGuard;\n    uint public absoluteMinTimeLock;\n    uint public timeLock;\n    uint public maxSecurityGuardDelay;\n\n    /// @dev The white list of approved addresses allowed to set up && receive\n    ///  payments from this vault\n    mapping (address => bool) public allowedMarketplace;\n\n    modifier onlyAllowedMarketplace { \n        require(allowedMarketplace[msg.sender], \"not allowed marketplace\"); \n        _; \n    }\n\n    /// @dev The address assigned the role of `securityGuard` is the only\n    ///  addresses that can call a function with this modifier\n    modifier onlySecurityGuard { \n        require (msg.sender == securityGuard, \"not security guard\"); \n        _; \n    }\n\n    // @dev Events to make the payment movements easy to find on the blockchain\n    event PaymentAuthorized(uint indexed idPayment, address indexed recipient, address token, uint amount);\n    event PaymentExecuted(uint indexed idPayment, address indexed recipient, address token, uint amount);\n    event PaymentCanceled(uint indexed idPayment);\n    event EtherReceived(address indexed from, uint amount);\n    event MarketplaceAuthorization(address indexed marketplace, bool authorized);\n\n/////////\n// Constructor\n/////////\n\n    /// @notice The Constructor creates the Vault on the blockchain\n    /// @param _escapeHatchCaller The address of a trusted account or contract to\n    ///  call `escapeHatch()` to send the ether in this contract to the\n    ///  `escapeHatchDestination` it would be ideal if `escapeHatchCaller` cannot move\n    ///  funds out of `escapeHatchDestination`\n    /// @param _escapeHatchDestination The address of a safe location (usu a\n    ///  Multisig) to send the ether held in this contract in an emergency\n    /// @param _absoluteMinTimeLock The minimum number of seconds `timelock` can\n    ///  be set to, if set to 0 the `owner` can remove the `timeLock` completely\n    /// @param _timeLock Initial number of seconds that payments are delayed\n    ///  after they are authorized (a security precaution)\n    /// @param _securityGuard Address that will be able to delay the payments\n    ///  beyond the initial timelock requirements; can be set to 0x0 to remove\n    ///  the `securityGuard` functionality\n    /// @param _maxSecurityGuardDelay The maximum number of seconds in total\n    ///   that `securityGuard` can delay a payment so that the owner can cancel\n    ///   the payment if needed\n    constructor(\n        address _escapeHatchCaller,\n        address _escapeHatchDestination,\n        uint _absoluteMinTimeLock,\n        uint _timeLock,\n        address _securityGuard,\n        uint _maxSecurityGuardDelay) Escapable(_escapeHatchCaller, _escapeHatchDestination)\n    {\n        absoluteMinTimeLock = _absoluteMinTimeLock;\n        timeLock = _timeLock;\n        securityGuard = _securityGuard;\n        maxSecurityGuardDelay = _maxSecurityGuardDelay;\n    }\n\n/////////\n// Helper functions\n/////////\n\n    /// @notice States the total number of authorized payments in this contract\n    /// @return The number of payments ever authorized even if they were canceled\n    function numberOfAuthorizedPayments() public view returns (uint) {\n        return authorizedPayments.length;\n    }\n\n    function getBalance() public view returns (uint256) {\n        return address(this).balance;\n    }\n\n//////\n// Receive Ether\n//////\n\n    /// @notice Called anytime ether is sent to the contract && creates an event\n    /// to more easily track the incoming transactions\n    function receiveEther() public payable {\n        emit EtherReceived(msg.sender, msg.value);\n    }\n\n    /// @notice The fall back function is called whenever ether is sent to this\n    ///  contract\n    receive () external payable {\n        receiveEther();\n    }\n\n////////\n// Marketplace Interface\n////////\n\n    /// @notice only `allowedMarketplace[]` Creates a new `Payment`\n    /// @param _recipient Destination of the payment\n    /// @param _amount Amount to be paid in wei\n    /// @param _paymentDelay Number of seconds the payment is to be delayed, if\n    ///  this value is below `timeLock` then the `timeLock` determines the delay\n    /// @return The Payment ID number for the new authorized payment\n    function authorizePayment(\n        address _buyer,\n        address _recipient,\n        uint _amount,\n        uint _paymentDelay\n    ) public onlyAllowedMarketplace returns(uint) {\n\n        uint idPayment = authorizedPayments.length;       // Unique Payment ID\n\n        // Overflow protection\n        require (_paymentDelay <= 10**18);\n\n        // The following lines fill out the payment struct\n        Payment memory p = Payment({\n            buyer: payable(_buyer), \n            earliestPayTime: _paymentDelay >= timeLock ?\n                                block.timestamp + _paymentDelay :\n                                block.timestamp + timeLock,\n            canceled: false,\n            paid: false,\n            recipient: payable(_recipient),\n            token: address(0),\n            amount: _amount,\n            securityGuardDelay: 0\n        });\n      \n        authorizedPayments.push(p);\n        emit PaymentAuthorized(idPayment, p.recipient, p.token, p.amount);\n        return idPayment;\n    }\n\n    /// @notice only `allowedMarketplace[]` The recipient of a payment calls this\n    ///  function to send themselves the ether after the `earliestPayTime` has\n    ///  expired\n    /// @param _idPayment The payment ID to be executed\n    function collectAuthorizedPayment(uint _idPayment) public onlyAllowedMarketplace {\n\n        // Check that the `_idPayment` has been added to the payments struct\n        require (_idPayment < authorizedPayments.length, \"invalid payment id\");\n\n        Payment storage p = authorizedPayments[_idPayment];\n\n        // Checking for reasons not to execute the payment\n        require (block.timestamp >= p.earliestPayTime);\n        require (!p.canceled, \"payment is canceled\");\n        require (!p.paid, \"payment is paid\");\n        require (address(this).balance >= p.amount, \"insufficient balance\");\n\n        p.paid = true; // Set the payment to being paid\n        require (p.recipient.send(p.amount)); // Make the payment\n        emit PaymentExecuted(_idPayment, p.recipient, p.token, p.amount);\n    }\n\n    function transferNFT(uint256 _nftId, uint _idPayment, address _flowInsightNFT) public onlyAllowedMarketplace {\n        require (_idPayment < authorizedPayments.length, \"invalid payment id\");\n\n        Payment memory p = authorizedPayments[_idPayment];\n        FlowInsightERC721NFT(_flowInsightNFT).transferFrom(p.recipient, p.buyer, _nftId);\n    }\n    \n    /// @notice only `allowedMarketplace[]` Cancel a payment all together\n    /// @param _idPayment ID of the payment to be canceled.\n    function cancelPayment(uint _idPayment) public onlyAllowedMarketplace {\n        require (_idPayment < authorizedPayments.length);\n\n        Payment storage p = authorizedPayments[_idPayment];\n\n\n        require (!p.canceled);\n        require (!p.paid);\n\n        p.canceled = true;\n        emit PaymentCanceled(_idPayment);\n    }\n\n/////////\n// SecurityGuard Interface\n/////////\n\n    /// @notice `onlySecurityGuard` Delays a payment for a set number of seconds\n    /// @param _idPayment ID of the payment to be delayed\n    /// @param _delay The number of seconds to delay the payment\n    function delayPayment(uint _idPayment, uint _delay) public onlySecurityGuard {\n        require (_idPayment < authorizedPayments.length);\n\n        // Overflow test\n        require (_delay <= 10**18);\n\n        Payment storage p = authorizedPayments[_idPayment];\n\n        require ((p.securityGuardDelay + _delay <= maxSecurityGuardDelay) && !p.paid && !p.canceled);\n\n        p.securityGuardDelay += _delay;\n        p.earliestPayTime += _delay;\n    }\n\n////////\n// Owner Interface\n///////\n\n    /// @notice `onlyOwner` Adds a marketplace to the `allowedMarketplace[]` white list\n    /// @param _marketplace The address of the contract being authorized/unauthorized\n    /// @param _authorize `true` if authorizing and `false` if unauthorizing\n    function authorizeMarketplace(address _marketplace, bool _authorize) public onlyOwner {\n        allowedMarketplace[_marketplace] = _authorize;\n        emit MarketplaceAuthorization(_marketplace, _authorize);\n    }\n\n    /// @notice `onlyOwner` Sets the address of `securityGuard`\n    /// @param _newSecurityGuard Address of the new security guard\n    function setSecurityGuard(address _newSecurityGuard) public onlyOwner {\n        securityGuard = _newSecurityGuard;\n    }\n\n    /// @notice `onlyOwner` Changes `timeLock`; the new `timeLock` cannot be\n    ///  lower than `absoluteMinTimeLock`\n    /// @param _newTimeLock Sets the new minimum default `timeLock` in seconds;\n    ///  pending payments maintain their `earliestPayTime`\n    function setTimelock(uint _newTimeLock) public onlyOwner {\n        require (_newTimeLock >= absoluteMinTimeLock);\n        timeLock = _newTimeLock;\n    }\n\n    /// @notice `onlyOwner` Changes the maximum number of seconds\n    /// `securityGuard` can delay a payment\n    /// @param _maxSecurityGuardDelay The new maximum delay in seconds that\n    ///  `securityGuard` can delay the payment's execution in total\n    function setMaxSecurityGuardDelay(uint _maxSecurityGuardDelay) public onlyOwner {\n        maxSecurityGuardDelay = _maxSecurityGuardDelay;\n    }\n}\n",
  "sourcePath": "/home/test/truffle-contract/contracts/FlowInsightVault.sol",
  "compiler": {
    "name": "solc",
    "version": "0.8.13+commit.abaa5c0e.Emscripten.clang"
  },
  "schemaVersion": "3.4.6",
  "updatedAt": "2022-05-27T02:59:48.226Z",
  "networkType": "ethereum",
  "devdoc": {
    "details": "`Vault` is a higher level contract built off of the `Escapable`  contract that holds funds for Campaigns and automates payments.",
    "kind": "dev",
    "methods": {
      "authorizeMarketplace(address,bool)": {
        "params": {
          "_authorize": "`true` if authorizing and `false` if unauthorizing",
          "_marketplace": "The address of the contract being authorized/unauthorized"
        }
      },
      "authorizePayment(address,address,uint256,uint256)": {
        "params": {
          "_amount": "Amount to be paid in wei",
          "_paymentDelay": "Number of seconds the payment is to be delayed, if  this value is below `timeLock` then the `timeLock` determines the delay",
          "_recipient": "Destination of the payment"
        },
        "returns": {
          "_0": "The Payment ID number for the new authorized payment"
        }
      },
      "cancelPayment(uint256)": {
        "params": {
          "_idPayment": "ID of the payment to be canceled."
        }
      },
      "changeEscapeCaller(address)": {
        "params": {
          "_newEscapeHatchCaller": "The address of a trusted account or contract to  call `escapeHatch()` to send the ether in this contract to the  `escapeHatchDestination` it would be ideal that `escapeHatchCaller` cannot  move funds out of `escapeHatchDestination`"
        }
      },
      "changeOwner(address)": {
        "params": {
          "_newOwner": "The address of the new owner. 0x0 can be used to create  an unowned neutral vault, however that cannot be undone"
        }
      },
      "collectAuthorizedPayment(uint256)": {
        "params": {
          "_idPayment": "The payment ID to be executed"
        }
      },
      "constructor": {
        "params": {
          "_absoluteMinTimeLock": "The minimum number of seconds `timelock` can  be set to, if set to 0 the `owner` can remove the `timeLock` completely",
          "_escapeHatchCaller": "The address of a trusted account or contract to  call `escapeHatch()` to send the ether in this contract to the  `escapeHatchDestination` it would be ideal if `escapeHatchCaller` cannot move  funds out of `escapeHatchDestination`",
          "_escapeHatchDestination": "The address of a safe location (usu a  Multisig) to send the ether held in this contract in an emergency",
          "_maxSecurityGuardDelay": "The maximum number of seconds in total   that `securityGuard` can delay a payment so that the owner can cancel   the payment if needed",
          "_securityGuard": "Address that will be able to delay the payments  beyond the initial timelock requirements; can be set to 0x0 to remove  the `securityGuard` functionality",
          "_timeLock": "Initial number of seconds that payments are delayed  after they are authorized (a security precaution)"
        }
      },
      "delayPayment(uint256,uint256)": {
        "params": {
          "_delay": "The number of seconds to delay the payment",
          "_idPayment": "ID of the payment to be delayed"
        }
      },
      "numberOfAuthorizedPayments()": {
        "returns": {
          "_0": "The number of payments ever authorized even if they were canceled"
        }
      },
      "setMaxSecurityGuardDelay(uint256)": {
        "params": {
          "_maxSecurityGuardDelay": "The new maximum delay in seconds that  `securityGuard` can delay the payment's execution in total"
        }
      },
      "setSecurityGuard(address)": {
        "params": {
          "_newSecurityGuard": "Address of the new security guard"
        }
      },
      "setTimelock(uint256)": {
        "params": {
          "_newTimeLock": "Sets the new minimum default `timeLock` in seconds;  pending payments maintain their `earliestPayTime`"
        }
      }
    },
    "stateVariables": {
      "allowedMarketplace": {
        "details": "The white list of approved addresses allowed to set up && receive  payments from this vault"
      }
    },
    "version": 1
  },
  "userdoc": {
    "kind": "user",
    "methods": {
      "authorizeMarketplace(address,bool)": {
        "notice": "`onlyOwner` Adds a marketplace to the `allowedMarketplace[]` white list"
      },
      "authorizePayment(address,address,uint256,uint256)": {
        "notice": "only `allowedMarketplace[]` Creates a new `Payment`"
      },
      "cancelPayment(uint256)": {
        "notice": "only `allowedMarketplace[]` Cancel a payment all together"
      },
      "changeEscapeCaller(address)": {
        "notice": "Changes the address assigned to call `escapeHatch()`"
      },
      "changeOwner(address)": {
        "notice": "`owner` can step down and assign some other address to this role"
      },
      "collectAuthorizedPayment(uint256)": {
        "notice": "only `allowedMarketplace[]` The recipient of a payment calls this  function to send themselves the ether after the `earliestPayTime` has  expired"
      },
      "constructor": {
        "notice": "The Constructor creates the Vault on the blockchain"
      },
      "delayPayment(uint256,uint256)": {
        "notice": "`onlySecurityGuard` Delays a payment for a set number of seconds"
      },
      "escapeHatch()": {
        "notice": "The `escapeHatch()` should only be called as a last resort if a security issue is uncovered or something unexpected happened"
      },
      "numberOfAuthorizedPayments()": {
        "notice": "States the total number of authorized payments in this contract"
      },
      "receiveEther()": {
        "notice": "Called anytime ether is sent to the contract && creates an event to more easily track the incoming transactions"
      },
      "setMaxSecurityGuardDelay(uint256)": {
        "notice": "`onlyOwner` Changes the maximum number of seconds `securityGuard` can delay a payment"
      },
      "setSecurityGuard(address)": {
        "notice": "`onlyOwner` Sets the address of `securityGuard`"
      },
      "setTimelock(uint256)": {
        "notice": "`onlyOwner` Changes `timeLock`; the new `timeLock` cannot be  lower than `absoluteMinTimeLock`"
      }
    },
    "version": 1
  }
}