{
  "contractName": "FlowInsightERC721NFT",
  "abi": [
    {
      "inputs": [
        {
          "internalType": "string",
          "name": "_nftName",
          "type": "string"
        },
        {
          "internalType": "string",
          "name": "_nftSymbol",
          "type": "string"
        }
      ],
      "stateMutability": "nonpayable",
      "type": "constructor"
    },
    {
      "anonymous": false,
      "inputs": [
        {
          "indexed": true,
          "internalType": "address",
          "name": "_owner",
          "type": "address"
        },
        {
          "indexed": true,
          "internalType": "address",
          "name": "_approved",
          "type": "address"
        },
        {
          "indexed": false,
          "internalType": "uint256",
          "name": "_tokenId",
          "type": "uint256"
        }
      ],
      "name": "Approval",
      "type": "event"
    },
    {
      "anonymous": false,
      "inputs": [
        {
          "indexed": true,
          "internalType": "address",
          "name": "_owner",
          "type": "address"
        },
        {
          "indexed": true,
          "internalType": "address",
          "name": "_operator",
          "type": "address"
        },
        {
          "indexed": false,
          "internalType": "bool",
          "name": "_approved",
          "type": "bool"
        }
      ],
      "name": "ApprovalForAll",
      "type": "event"
    },
    {
      "anonymous": false,
      "inputs": [
        {
          "indexed": true,
          "internalType": "address",
          "name": "account",
          "type": "address"
        }
      ],
      "name": "MinterAdded",
      "type": "event"
    },
    {
      "anonymous": false,
      "inputs": [
        {
          "indexed": true,
          "internalType": "address",
          "name": "account",
          "type": "address"
        }
      ],
      "name": "MinterRemoved",
      "type": "event"
    },
    {
      "anonymous": false,
      "inputs": [
        {
          "indexed": false,
          "internalType": "uint256",
          "name": "nft_id",
          "type": "uint256"
        },
        {
          "indexed": false,
          "internalType": "address",
          "name": "owner",
          "type": "address"
        }
      ],
      "name": "NFTCreated",
      "type": "event"
    },
    {
      "anonymous": false,
      "inputs": [
        {
          "indexed": true,
          "internalType": "address",
          "name": "previousOwner",
          "type": "address"
        },
        {
          "indexed": true,
          "internalType": "address",
          "name": "newOwner",
          "type": "address"
        }
      ],
      "name": "OwnershipTransferred",
      "type": "event"
    },
    {
      "anonymous": false,
      "inputs": [
        {
          "indexed": true,
          "internalType": "address",
          "name": "_from",
          "type": "address"
        },
        {
          "indexed": true,
          "internalType": "address",
          "name": "_to",
          "type": "address"
        },
        {
          "indexed": false,
          "internalType": "uint256",
          "name": "_tokenId",
          "type": "uint256"
        }
      ],
      "name": "Transfer",
      "type": "event"
    },
    {
      "inputs": [
        {
          "internalType": "address",
          "name": "_address",
          "type": "address"
        }
      ],
      "name": "_isContract",
      "outputs": [
        {
          "internalType": "bool",
          "name": "",
          "type": "bool"
        }
      ],
      "stateMutability": "view",
      "type": "function",
      "constant": true
    },
    {
      "inputs": [
        {
          "internalType": "address",
          "name": "_approved",
          "type": "address"
        },
        {
          "internalType": "uint256",
          "name": "_tokenId",
          "type": "uint256"
        }
      ],
      "name": "approve",
      "outputs": [],
      "stateMutability": "payable",
      "type": "function",
      "payable": true
    },
    {
      "inputs": [
        {
          "internalType": "address",
          "name": "_owner",
          "type": "address"
        }
      ],
      "name": "balanceOf",
      "outputs": [
        {
          "internalType": "uint256",
          "name": "",
          "type": "uint256"
        }
      ],
      "stateMutability": "view",
      "type": "function",
      "constant": true
    },
    {
      "inputs": [
        {
          "internalType": "uint256",
          "name": "_tokenId",
          "type": "uint256"
        }
      ],
      "name": "getApproved",
      "outputs": [
        {
          "internalType": "address",
          "name": "",
          "type": "address"
        }
      ],
      "stateMutability": "view",
      "type": "function",
      "constant": true
    },
    {
      "inputs": [],
      "name": "getTotalSupply",
      "outputs": [
        {
          "internalType": "uint256",
          "name": "",
          "type": "uint256"
        }
      ],
      "stateMutability": "view",
      "type": "function",
      "constant": true
    },
    {
      "inputs": [
        {
          "internalType": "address",
          "name": "_owner",
          "type": "address"
        },
        {
          "internalType": "address",
          "name": "_operator",
          "type": "address"
        }
      ],
      "name": "isApprovedForAll",
      "outputs": [
        {
          "internalType": "bool",
          "name": "",
          "type": "bool"
        }
      ],
      "stateMutability": "view",
      "type": "function",
      "constant": true
    },
    {
      "inputs": [],
      "name": "marketplaceManager",
      "outputs": [
        {
          "internalType": "contract FlowInsightMarketplaceManager",
          "name": "",
          "type": "address"
        }
      ],
      "stateMutability": "view",
      "type": "function",
      "constant": true
    },
    {
      "inputs": [],
      "name": "name",
      "outputs": [
        {
          "internalType": "string",
          "name": "_name",
          "type": "string"
        }
      ],
      "stateMutability": "view",
      "type": "function",
      "constant": true
    },
    {
      "inputs": [
        {
          "internalType": "address",
          "name": "_owner",
          "type": "address"
        }
      ],
      "name": "ownedTokens",
      "outputs": [
        {
          "internalType": "uint256[]",
          "name": "",
          "type": "uint256[]"
        }
      ],
      "stateMutability": "view",
      "type": "function",
      "constant": true
    },
    {
      "inputs": [],
      "name": "owner",
      "outputs": [
        {
          "internalType": "address",
          "name": "",
          "type": "address"
        }
      ],
      "stateMutability": "view",
      "type": "function",
      "constant": true
    },
    {
      "inputs": [
        {
          "internalType": "uint256",
          "name": "_tokenId",
          "type": "uint256"
        }
      ],
      "name": "ownerOf",
      "outputs": [
        {
          "internalType": "address",
          "name": "",
          "type": "address"
        }
      ],
      "stateMutability": "view",
      "type": "function",
      "constant": true
    },
    {
      "inputs": [],
      "name": "renounceOwnership",
      "outputs": [],
      "stateMutability": "nonpayable",
      "type": "function"
    },
    {
      "inputs": [
        {
          "internalType": "address",
          "name": "_from",
          "type": "address"
        },
        {
          "internalType": "address",
          "name": "_to",
          "type": "address"
        },
        {
          "internalType": "uint256",
          "name": "_tokenId",
          "type": "uint256"
        }
      ],
      "name": "safeTransferFrom",
      "outputs": [],
      "stateMutability": "payable",
      "type": "function",
      "payable": true
    },
    {
      "inputs": [
        {
          "internalType": "address",
          "name": "_from",
          "type": "address"
        },
        {
          "internalType": "address",
          "name": "_to",
          "type": "address"
        },
        {
          "internalType": "uint256",
          "name": "_tokenId",
          "type": "uint256"
        },
        {
          "internalType": "bytes",
          "name": "_data",
          "type": "bytes"
        }
      ],
      "name": "safeTransferFrom",
      "outputs": [],
      "stateMutability": "payable",
      "type": "function",
      "payable": true
    },
    {
      "inputs": [
        {
          "internalType": "address",
          "name": "_operator",
          "type": "address"
        },
        {
          "internalType": "bool",
          "name": "_approved",
          "type": "bool"
        }
      ],
      "name": "setApprovalForAll",
      "outputs": [],
      "stateMutability": "nonpayable",
      "type": "function"
    },
    {
      "inputs": [
        {
          "internalType": "address",
          "name": "_marketplace",
          "type": "address"
        },
        {
          "internalType": "bool",
          "name": "_whitelisted",
          "type": "bool"
        }
      ],
      "name": "setMarketplace",
      "outputs": [],
      "stateMutability": "nonpayable",
      "type": "function"
    },
    {
      "inputs": [
        {
          "internalType": "address",
          "name": "_manager",
          "type": "address"
        }
      ],
      "name": "setMarketplaceManager",
      "outputs": [],
      "stateMutability": "nonpayable",
      "type": "function"
    },
    {
      "inputs": [
        {
          "internalType": "address",
          "name": "_newSetter",
          "type": "address"
        }
      ],
      "name": "setWhitelistSetter",
      "outputs": [],
      "stateMutability": "nonpayable",
      "type": "function"
    },
    {
      "inputs": [],
      "name": "symbol",
      "outputs": [
        {
          "internalType": "string",
          "name": "_symbol",
          "type": "string"
        }
      ],
      "stateMutability": "view",
      "type": "function",
      "constant": true
    },
    {
      "inputs": [
        {
          "internalType": "uint256",
          "name": "_index",
          "type": "uint256"
        }
      ],
      "name": "tokenByIndex",
      "outputs": [
        {
          "internalType": "uint256",
          "name": "",
          "type": "uint256"
        }
      ],
      "stateMutability": "view",
      "type": "function",
      "constant": true
    },
    {
      "inputs": [
        {
          "internalType": "address",
          "name": "_owner",
          "type": "address"
        },
        {
          "internalType": "uint256",
          "name": "_index",
          "type": "uint256"
        }
      ],
      "name": "tokenOfOwnerByIndex",
      "outputs": [
        {
          "internalType": "uint256",
          "name": "_tokenId",
          "type": "uint256"
        }
      ],
      "stateMutability": "view",
      "type": "function",
      "constant": true
    },
    {
      "inputs": [
        {
          "internalType": "uint256",
          "name": "_tokenId",
          "type": "uint256"
        }
      ],
      "name": "tokenURI",
      "outputs": [
        {
          "internalType": "string",
          "name": "",
          "type": "string"
        }
      ],
      "stateMutability": "view",
      "type": "function",
      "constant": true
    },
    {
      "inputs": [],
      "name": "totalSupply",
      "outputs": [
        {
          "internalType": "uint256",
          "name": "",
          "type": "uint256"
        }
      ],
      "stateMutability": "view",
      "type": "function",
      "constant": true
    },
    {
      "inputs": [
        {
          "internalType": "address",
          "name": "_from",
          "type": "address"
        },
        {
          "internalType": "address",
          "name": "_to",
          "type": "address"
        },
        {
          "internalType": "uint256",
          "name": "_tokenId",
          "type": "uint256"
        }
      ],
      "name": "transferFrom",
      "outputs": [],
      "stateMutability": "payable",
      "type": "function",
      "payable": true
    },
    {
      "inputs": [
        {
          "internalType": "address",
          "name": "newOwner",
          "type": "address"
        }
      ],
      "name": "transferOwnership",
      "outputs": [],
      "stateMutability": "nonpayable",
      "type": "function"
    },
    {
      "inputs": [],
      "name": "whitelistSetterAddress",
      "outputs": [
        {
          "internalType": "address",
          "name": "",
          "type": "address"
        }
      ],
      "stateMutability": "view",
      "type": "function",
      "constant": true
    },
    {
      "inputs": [
        {
          "internalType": "address",
          "name": "",
          "type": "address"
        }
      ],
      "name": "whitelistedMarketplace",
      "outputs": [
        {
          "internalType": "bool",
          "name": "",
          "type": "bool"
        }
      ],
      "stateMutability": "view",
      "type": "function",
      "constant": true
    },
    {
      "inputs": [
        {
          "internalType": "address",
          "name": "account",
          "type": "address"
        }
      ],
      "name": "addMinter",
      "outputs": [],
      "stateMutability": "nonpayable",
      "type": "function"
    },
    {
      "inputs": [
        {
          "internalType": "address",
          "name": "account",
          "type": "address"
        }
      ],
      "name": "removeMinter",
      "outputs": [],
      "stateMutability": "nonpayable",
      "type": "function"
    },
    {
      "inputs": [
        {
          "internalType": "address",
          "name": "account",
          "type": "address"
        }
      ],
      "name": "isMinter",
      "outputs": [
        {
          "internalType": "bool",
          "name": "",
          "type": "bool"
        }
      ],
      "stateMutability": "view",
      "type": "function",
      "constant": true
    },
    {
      "inputs": [
        {
          "internalType": "uint256",
          "name": "_tokenId",
          "type": "uint256"
        }
      ],
      "name": "getNFTMetadata",
      "outputs": [
        {
          "components": [
            {
              "internalType": "bool",
              "name": "special",
              "type": "bool"
            },
            {
              "internalType": "uint256",
              "name": "createdAt",
              "type": "uint256"
            },
            {
              "internalType": "string",
              "name": "name",
              "type": "string"
            },
            {
              "internalType": "string",
              "name": "desc",
              "type": "string"
            },
            {
              "internalType": "string",
              "name": "displayUrl",
              "type": "string"
            },
            {
              "internalType": "string",
              "name": "metaDataHash",
              "type": "string"
            }
          ],
          "internalType": "struct FlowInsightERC721NFT.FlowInsightNFT",
          "name": "",
          "type": "tuple"
        }
      ],
      "stateMutability": "view",
      "type": "function",
      "constant": true
    },
    {
      "inputs": [
        {
          "internalType": "address",
          "name": "_to",
          "type": "address"
        },
        {
          "internalType": "string",
          "name": "_name",
          "type": "string"
        },
        {
          "internalType": "string",
          "name": "_desc",
          "type": "string"
        },
        {
          "internalType": "string",
          "name": "_displayUrl",
          "type": "string"
        },
        {
          "internalType": "string",
          "name": "_metaDataHash",
          "type": "string"
        }
      ],
      "name": "createNFT",
      "outputs": [
        {
          "internalType": "uint256",
          "name": "_FlowInsightId",
          "type": "uint256"
        }
      ],
      "stateMutability": "nonpayable",
      "type": "function"
    }
  ],
  "bytecode": "0x60806040523480156200001157600080fd5b5060405162004dcc38038062004dcc8339818101604052810190620000379190620003ec565b336000806101000a81548173ffffffffffffffffffffffffffffffffffffffff021916908373ffffffffffffffffffffffffffffffffffffffff160217905550620000976200008b620000d160201b60201c565b620000d960201b60201c565b81600c9080519060200190620000af9291906200019f565b5080600d9080519060200190620000c89291906200019f565b505050620004d5565b600033905090565b6000600360009054906101000a900473ffffffffffffffffffffffffffffffffffffffff16905081600360006101000a81548173ffffffffffffffffffffffffffffffffffffffff021916908373ffffffffffffffffffffffffffffffffffffffff1602179055508173ffffffffffffffffffffffffffffffffffffffff168173ffffffffffffffffffffffffffffffffffffffff167f8be0079c531659141344cd1fd0a4f28419497f9722a3daafe3b4186f6b6457e060405160405180910390a35050565b828054620001ad90620004a0565b90600052602060002090601f016020900481019282620001d157600085556200021d565b82601f10620001ec57805160ff19168380011785556200021d565b828001600101855582156200021d579182015b828111156200021c578251825591602001919060010190620001ff565b5b5090506200022c919062000230565b5090565b5b808211156200024b57600081600090555060010162000231565b5090565b6000604051905090565b600080fd5b600080fd5b600080fd5b600080fd5b6000601f19601f8301169050919050565b7f4e487b7100000000000000000000000000000000000000000000000000000000600052604160045260246000fd5b620002b8826200026d565b810181811067ffffffffffffffff82111715620002da57620002d96200027e565b5b80604052505050565b6000620002ef6200024f565b9050620002fd8282620002ad565b919050565b600067ffffffffffffffff82111562000320576200031f6200027e565b5b6200032b826200026d565b9050602081019050919050565b60005b83811015620003585780820151818401526020810190506200033b565b8381111562000368576000848401525b50505050565b6000620003856200037f8462000302565b620002e3565b905082815260208101848484011115620003a457620003a362000268565b5b620003b184828562000338565b509392505050565b600082601f830112620003d157620003d062000263565b5b8151620003e38482602086016200036e565b91505092915050565b6000806040838503121562000406576200040562000259565b5b600083015167ffffffffffffffff8111156200042757620004266200025e565b5b6200043585828601620003b9565b925050602083015167ffffffffffffffff8111156200045957620004586200025e565b5b6200046785828601620003b9565b9150509250929050565b7f4e487b7100000000000000000000000000000000000000000000000000000000600052602260045260246000fd5b60006002820490506001821680620004b957607f821691505b602082108103620004cf57620004ce62000471565b5b50919050565b6148e780620004e56000396000f3fe6080604052600436106101e35760003560e01c806370a0823111610102578063a306dfbe11610095578063c4e41b2211610064578063c4e41b2214610706578063c87b56dd14610731578063e985e9c51461076e578063f2fde38b146107ab576101e3565b8063a306dfbe14610633578063aa271e1a14610670578063b12ab40f146106ad578063b88d4fde146106ea576101e3565b80638da5cb5b116100d15780638da5cb5b1461058b57806395d89b41146105b6578063983b2d56146105e1578063a22cb4651461060a576101e3565b806370a08231146104d1578063715018a61461050e5780637419e77a146105255780637d48441f1461054e576101e3565b80632ffb054e1161017a578063547a5eee11610149578063547a5eee146103f1578063609ccb6a1461041a5780636352211e146104575780636be9a6f114610494576101e3565b80632ffb054e146103465780633092afd51461036f57806342842e0e146103985780634f6ccce7146103b4576101e3565b806318160ddd116101b657806318160ddd146102975780631889500c146102c257806323b872dd146102ed5780632f745c5914610309576101e3565b806306fdde03146101e8578063081812fc14610213578063095ea7b3146102505780631412409a1461026c575b600080fd5b3480156101f457600080fd5b506101fd6107d4565b60405161020a91906133c6565b60405180910390f35b34801561021f57600080fd5b5061023a60048036038101906102359190613432565b610866565b60405161024791906134a0565b60405180910390f35b61026a600480360381019061026591906134e7565b610947565b005b34801561027857600080fd5b50610281610c4a565b60405161028e91906134a0565b60405180910390f35b3480156102a357600080fd5b506102ac610c6e565b6040516102b99190613536565b60405180910390f35b3480156102ce57600080fd5b506102d7610c78565b6040516102e491906135b0565b60405180910390f35b610307600480360381019061030291906135cb565b610c9e565b005b34801561031557600080fd5b50610330600480360381019061032b91906134e7565b610cc0565b60405161033d9190613536565b60405180910390f35b34801561035257600080fd5b5061036d6004803603810190610368919061361e565b610e18565b005b34801561037b57600080fd5b506103966004803603810190610391919061361e565b610eea565b005b6103b260048036038101906103ad91906135cb565b610f72565b005b3480156103c057600080fd5b506103db60048036038101906103d69190613432565b610f94565b6040516103e89190613536565b60405180910390f35b3480156103fd57600080fd5b506104186004803603810190610413919061361e565b610ff5565b005b34801561042657600080fd5b50610441600480360381019061043c9190613780565b6110c6565b60405161044e9190613536565b60405180910390f35b34801561046357600080fd5b5061047e60048036038101906104799190613432565b61122f565b60405161048b91906134a0565b60405180910390f35b3480156104a057600080fd5b506104bb60048036038101906104b69190613432565b611310565b6040516104c8919061397d565b60405180910390f35b3480156104dd57600080fd5b506104f860048036038101906104f3919061361e565b6115b9565b6040516105059190613536565b60405180910390f35b34801561051a57600080fd5b50610523611673565b005b34801561053157600080fd5b5061054c600480360381019061054791906139cb565b6116fb565b005b34801561055a57600080fd5b506105756004803603810190610570919061361e565b611876565b6040516105829190613a1a565b60405180910390f35b34801561059757600080fd5b506105a0611889565b6040516105ad91906134a0565b60405180910390f35b3480156105c257600080fd5b506105cb6118b3565b6040516105d891906133c6565b60405180910390f35b3480156105ed57600080fd5b506106086004803603810190610603919061361e565b611945565b005b34801561061657600080fd5b50610631600480360381019061062c91906139cb565b6119cd565b005b34801561063f57600080fd5b5061065a6004803603810190610655919061361e565b611b99565b6040516106679190613a1a565b60405180910390f35b34801561067c57600080fd5b506106976004803603810190610692919061361e565b611bb9565b6040516106a49190613a1a565b60405180910390f35b3480156106b957600080fd5b506106d460048036038101906106cf919061361e565b611c83565b6040516106e19190613ae4565b60405180910390f35b61070460048036038101906106ff9190613ba7565b611d89565b005b34801561071257600080fd5b5061071b611d9d565b6040516107289190613536565b60405180910390f35b34801561073d57600080fd5b5061075860048036038101906107539190613432565b611da7565b60405161076591906133c6565b60405180910390f35b34801561077a57600080fd5b5061079560048036038101906107909190613c2a565b611db9565b6040516107a29190613a1a565b60405180910390f35b3480156107b757600080fd5b506107d260048036038101906107cd919061361e565b611e4d565b005b6060600c80546107e390613c99565b80601f016020809104026020016040519081016040528092919081815260200182805461080f90613c99565b801561085c5780601f106108315761010080835404028352916020019161085c565b820191906000526020600020905b81548152906001019060200180831161083f57829003601f168201915b5050505050905090565b600081600073ffffffffffffffffffffffffffffffffffffffff166007600083815260200190815260200160002060009054906101000a900473ffffffffffffffffffffffffffffffffffffffff1673ffffffffffffffffffffffffffffffffffffffff160361090b576040517f08c379a000000000000000000000000000000000000000000000000000000000815260040161090290613d16565b60405180910390fd5b6009600084815260200190815260200160002060009054906101000a900473ffffffffffffffffffffffffffffffffffffffff16915050919050565b80600073ffffffffffffffffffffffffffffffffffffffff166007600083815260200190815260200160002060009054906101000a900473ffffffffffffffffffffffffffffffffffffffff1673ffffffffffffffffffffffffffffffffffffffff16036109ea576040517f08c379a00000000000000000000000000000000000000000000000000000000081526004016109e190613d16565b60405180910390fd5b816109f53382611f44565b80610a065750610a053382611fb0565b5b610a45576040517f08c379a0000000000000000000000000000000000000000000000000000000008152600401610a3c90613d82565b60405180910390fd5b60006007600085815260200190815260200160002060009054906101000a900473ffffffffffffffffffffffffffffffffffffffff1690508473ffffffffffffffffffffffffffffffffffffffff168173ffffffffffffffffffffffffffffffffffffffff1603610aeb576040517f08c379a0000000000000000000000000000000000000000000000000000000008152600401610ae290613dee565b60405180910390fd5b8473ffffffffffffffffffffffffffffffffffffffff166009600086815260200190815260200160002060009054906101000a900473ffffffffffffffffffffffffffffffffffffffff1673ffffffffffffffffffffffffffffffffffffffff1603610b8c576040517f08c379a0000000000000000000000000000000000000000000000000000000008152600401610b8390613e80565b60405180910390fd5b846009600086815260200190815260200160002060006101000a81548173ffffffffffffffffffffffffffffffffffffffff021916908373ffffffffffffffffffffffffffffffffffffffff1602179055508473ffffffffffffffffffffffffffffffffffffffff168173ffffffffffffffffffffffffffffffffffffffff167f8c5be1e5ebec7d5bd14f71427d1e84f3dd0314c0f7b2291e5b200ac8c7c3b92586604051610c3b9190613536565b60405180910390a35050505050565b60008054906101000a900473ffffffffffffffffffffffffffffffffffffffff1681565b6000600454905090565b600160009054906101000a900473ffffffffffffffffffffffffffffffffffffffff1681565b610cbb8383836040518060200160405280600081525060006120cb565b505050565b60008073ffffffffffffffffffffffffffffffffffffffff168373ffffffffffffffffffffffffffffffffffffffff1603610d30576040517f08c379a0000000000000000000000000000000000000000000000000000000008152600401610d2790613eec565b60405180910390fd5b600a60008473ffffffffffffffffffffffffffffffffffffffff1673ffffffffffffffffffffffffffffffffffffffff168152602001908152602001600020805490508210610db4576040517f08c379a0000000000000000000000000000000000000000000000000000000008152600401610dab90613f58565b60405180910390fd5b600a60008473ffffffffffffffffffffffffffffffffffffffff1673ffffffffffffffffffffffffffffffffffffffff1681526020019081526020016000208281548110610e0557610e04613f78565b5b9060005260206000200154905092915050565b60008054906101000a900473ffffffffffffffffffffffffffffffffffffffff1673ffffffffffffffffffffffffffffffffffffffff163373ffffffffffffffffffffffffffffffffffffffff1614610ea6576040517f08c379a0000000000000000000000000000000000000000000000000000000008152600401610e9d90613ff3565b60405180910390fd5b80600160006101000a81548173ffffffffffffffffffffffffffffffffffffffff021916908373ffffffffffffffffffffffffffffffffffffffff16021790555050565b610ef26125fd565b73ffffffffffffffffffffffffffffffffffffffff16610f10611889565b73ffffffffffffffffffffffffffffffffffffffff1614610f66576040517f08c379a0000000000000000000000000000000000000000000000000000000008152600401610f5d9061405f565b60405180910390fd5b610f6f81612605565b50565b610f8f8383836040518060200160405280600081525060016120cb565b505050565b60006004548210610fda576040517f08c379a0000000000000000000000000000000000000000000000000000000008152600401610fd190613f58565b60405180910390fd5b60056000838152602001908152602001600020549050919050565b60008054906101000a900473ffffffffffffffffffffffffffffffffffffffff1673ffffffffffffffffffffffffffffffffffffffff163373ffffffffffffffffffffffffffffffffffffffff1614611083576040517f08c379a000000000000000000000000000000000000000000000000000000000815260040161107a90613ff3565b60405180910390fd5b806000806101000a81548173ffffffffffffffffffffffffffffffffffffffff021916908373ffffffffffffffffffffffffffffffffffffffff16021790555050565b6000806040518060c00160405280600015158152602001428152602001878152602001868152602001858152602001848152509050600f81908060018154018082558091505060019003906000526020600020906006020160009091909190915060008201518160000160006101000a81548160ff02191690831515021790555060208201518160010155604082015181600201908051906020019061116d929190613231565b50606082015181600301908051906020019061118a929190613231565b5060808201518160040190805190602001906111a7929190613231565b5060a08201518160050190805190602001906111c4929190613231565b5050506111e06001600f8054905061279e90919063ffffffff16565b91506111ec87836127e8565b7fbe4d5028ecb11dfb1cbc0c1dd7eed270db43c11a50da18fceb823c9af57a2a78828860405161121d92919061407f565b60405180910390a15095945050505050565b600081600073ffffffffffffffffffffffffffffffffffffffff166007600083815260200190815260200160002060009054906101000a900473ffffffffffffffffffffffffffffffffffffffff1673ffffffffffffffffffffffffffffffffffffffff16036112d4576040517f08c379a00000000000000000000000000000000000000000000000000000000081526004016112cb90613d16565b60405180910390fd5b6007600084815260200190815260200160002060009054906101000a900473ffffffffffffffffffffffffffffffffffffffff16915050919050565b6113186132b7565b600f828154811061132c5761132b613f78565b5b90600052602060002090600602016040518060c00160405290816000820160009054906101000a900460ff161515151581526020016001820154815260200160028201805461137a90613c99565b80601f01602080910402602001604051908101604052809291908181526020018280546113a690613c99565b80156113f35780601f106113c8576101008083540402835291602001916113f3565b820191906000526020600020905b8154815290600101906020018083116113d657829003601f168201915b5050505050815260200160038201805461140c90613c99565b80601f016020809104026020016040519081016040528092919081815260200182805461143890613c99565b80156114855780601f1061145a57610100808354040283529160200191611485565b820191906000526020600020905b81548152906001019060200180831161146857829003601f168201915b5050505050815260200160048201805461149e90613c99565b80601f01602080910402602001604051908101604052809291908181526020018280546114ca90613c99565b80156115175780601f106114ec57610100808354040283529160200191611517565b820191906000526020600020905b8154815290600101906020018083116114fa57829003601f168201915b5050505050815260200160058201805461153090613c99565b80601f016020809104026020016040519081016040528092919081815260200182805461155c90613c99565b80156115a95780601f1061157e576101008083540402835291602001916115a9565b820191906000526020600020905b81548152906001019060200180831161158c57829003601f168201915b5050505050815250509050919050565b60008073ffffffffffffffffffffffffffffffffffffffff168273ffffffffffffffffffffffffffffffffffffffff1603611629576040517f08c379a0000000000000000000000000000000000000000000000000000000008152600401611620906140f4565b60405180910390fd5b600a60008373ffffffffffffffffffffffffffffffffffffffff1673ffffffffffffffffffffffffffffffffffffffff168152602001908152602001600020805490509050919050565b61167b6125fd565b73ffffffffffffffffffffffffffffffffffffffff16611699611889565b73ffffffffffffffffffffffffffffffffffffffff16146116ef576040517f08c379a00000000000000000000000000000000000000000000000000000000081526004016116e69061405f565b60405180910390fd5b6116f9600061294e565b565b60008054906101000a900473ffffffffffffffffffffffffffffffffffffffff1673ffffffffffffffffffffffffffffffffffffffff163373ffffffffffffffffffffffffffffffffffffffff1614611789576040517f08c379a000000000000000000000000000000000000000000000000000000000815260040161178090613ff3565b60405180910390fd5b801515600260008473ffffffffffffffffffffffffffffffffffffffff1673ffffffffffffffffffffffffffffffffffffffff16815260200190815260200160002060009054906101000a900460ff1615150361181b576040517f08c379a000000000000000000000000000000000000000000000000000000000815260040161181290614160565b60405180910390fd5b80600260008473ffffffffffffffffffffffffffffffffffffffff1673ffffffffffffffffffffffffffffffffffffffff16815260200190815260200160002060006101000a81548160ff0219169083151502179055505050565b600080823b905060008111915050919050565b6000600360009054906101000a900473ffffffffffffffffffffffffffffffffffffffff16905090565b6060600d80546118c290613c99565b80601f01602080910402602001604051908101604052809291908181526020018280546118ee90613c99565b801561193b5780601f106119105761010080835404028352916020019161193b565b820191906000526020600020905b81548152906001019060200180831161191e57829003601f168201915b5050505050905090565b61194d6125fd565b73ffffffffffffffffffffffffffffffffffffffff1661196b611889565b73ffffffffffffffffffffffffffffffffffffffff16146119c1576040517f08c379a00000000000000000000000000000000000000000000000000000000081526004016119b89061405f565b60405180910390fd5b6119ca81612a14565b50565b801515600860003373ffffffffffffffffffffffffffffffffffffffff1673ffffffffffffffffffffffffffffffffffffffff16815260200190815260200160002060008473ffffffffffffffffffffffffffffffffffffffff1673ffffffffffffffffffffffffffffffffffffffff16815260200190815260200160002060009054906101000a900460ff16151503611a9c576040517f08c379a0000000000000000000000000000000000000000000000000000000008152600401611a93906141cc565b60405180910390fd5b80600860003373ffffffffffffffffffffffffffffffffffffffff1673ffffffffffffffffffffffffffffffffffffffff16815260200190815260200160002060008473ffffffffffffffffffffffffffffffffffffffff1673ffffffffffffffffffffffffffffffffffffffff16815260200190815260200160002060006101000a81548160ff0219169083151502179055508173ffffffffffffffffffffffffffffffffffffffff163373ffffffffffffffffffffffffffffffffffffffff167f17307eab39ab6107e8899845ad3d59bd9653f200f220920489ca2b5937696c3183604051611b8d9190613a1a565b60405180910390a35050565b60026020528060005260406000206000915054906101000a900460ff1681565b60008073ffffffffffffffffffffffffffffffffffffffff168273ffffffffffffffffffffffffffffffffffffffff1603611c29576040517f08c379a0000000000000000000000000000000000000000000000000000000008152600401611c2090614238565b60405180910390fd5b6000601060008473ffffffffffffffffffffffffffffffffffffffff1673ffffffffffffffffffffffffffffffffffffffff16815260200190815260200160002060009054906101000a900460ff16905080915050919050565b6060600073ffffffffffffffffffffffffffffffffffffffff168273ffffffffffffffffffffffffffffffffffffffff1603611cf4576040517f08c379a0000000000000000000000000000000000000000000000000000000008152600401611ceb90613eec565b60405180910390fd5b600a60008373ffffffffffffffffffffffffffffffffffffffff1673ffffffffffffffffffffffffffffffffffffffff168152602001908152602001600020805480602002602001604051908101604052809291908181526020018280548015611d7d57602002820191906000526020600020905b815481526020019060010190808311611d69575b50505050509050919050565b611d978484848460016120cb565b50505050565b6000600454905090565b6060611db282612bae565b9050919050565b6000600860008473ffffffffffffffffffffffffffffffffffffffff1673ffffffffffffffffffffffffffffffffffffffff16815260200190815260200160002060008373ffffffffffffffffffffffffffffffffffffffff1673ffffffffffffffffffffffffffffffffffffffff16815260200190815260200160002060009054906101000a900460ff16905092915050565b611e556125fd565b73ffffffffffffffffffffffffffffffffffffffff16611e73611889565b73ffffffffffffffffffffffffffffffffffffffff1614611ec9576040517f08c379a0000000000000000000000000000000000000000000000000000000008152600401611ec09061405f565b60405180910390fd5b600073ffffffffffffffffffffffffffffffffffffffff168173ffffffffffffffffffffffffffffffffffffffff1603611f38576040517f08c379a0000000000000000000000000000000000000000000000000000000008152600401611f2f906142ca565b60405180910390fd5b611f418161294e565b50565b60008273ffffffffffffffffffffffffffffffffffffffff166007600084815260200190815260200160002060009054906101000a900473ffffffffffffffffffffffffffffffffffffffff1673ffffffffffffffffffffffffffffffffffffffff1614905092915050565b6000600260008473ffffffffffffffffffffffffffffffffffffffff1673ffffffffffffffffffffffffffffffffffffffff16815260200190815260200160002060009054906101000a900460ff16806120c35750600860006007600085815260200190815260200160002060009054906101000a900473ffffffffffffffffffffffffffffffffffffffff1673ffffffffffffffffffffffffffffffffffffffff1673ffffffffffffffffffffffffffffffffffffffff16815260200190815260200160002060008473ffffffffffffffffffffffffffffffffffffffff1673ffffffffffffffffffffffffffffffffffffffff16815260200190815260200160002060009054906101000a900460ff165b905092915050565b82600073ffffffffffffffffffffffffffffffffffffffff166007600083815260200190815260200160002060009054906101000a900473ffffffffffffffffffffffffffffffffffffffff1673ffffffffffffffffffffffffffffffffffffffff160361216e576040517f08c379a000000000000000000000000000000000000000000000000000000000815260040161216590613d16565b60405180910390fd5b836121793382611f44565b8061218a57506121893382611fb0565b5b8061219b575061219a3382612c53565b5b6121da576040517f08c379a00000000000000000000000000000000000000000000000000000000081526004016121d19061435c565b60405180910390fd5b868686600073ffffffffffffffffffffffffffffffffffffffff16600160009054906101000a900473ffffffffffffffffffffffffffffffffffffffff1673ffffffffffffffffffffffffffffffffffffffff1614806122d85750600160009054906101000a900473ffffffffffffffffffffffffffffffffffffffff1673ffffffffffffffffffffffffffffffffffffffff1663f7ebc39a8484846040518463ffffffff1660e01b81526004016122949392919061437c565b6020604051808303816000875af11580156122b3573d6000803e3d6000fd5b505050506040513d601f19601f820116820180604052508101906122d791906143c8565b5b612317576040517f08c379a000000000000000000000000000000000000000000000000000000000815260040161230e90614441565b60405180910390fd5b6123218a89611f44565b612360576040517f08c379a0000000000000000000000000000000000000000000000000000000008152600401612357906144ad565b60405180910390fd5b600073ffffffffffffffffffffffffffffffffffffffff168973ffffffffffffffffffffffffffffffffffffffff16036123cf576040517f08c379a00000000000000000000000000000000000000000000000000000000081526004016123c690614238565b60405180910390fd5b8973ffffffffffffffffffffffffffffffffffffffff168973ffffffffffffffffffffffffffffffffffffffff160361243d576040517f08c379a00000000000000000000000000000000000000000000000000000000081526004016124349061453f565b60405180910390fd5b6124478a89612cbf565b6009600089815260200190815260200160002060006101000a81549073ffffffffffffffffffffffffffffffffffffffff0219169055600073ffffffffffffffffffffffffffffffffffffffff168a73ffffffffffffffffffffffffffffffffffffffff167f8c5be1e5ebec7d5bd14f71427d1e84f3dd0314c0f7b2291e5b200ac8c7c3b9258a6040516124db9190613536565b60405180910390a36124ed8989612fe4565b8580156124ff57506124fe89611876565b5b1561258c578873ffffffffffffffffffffffffffffffffffffffff1663150b7a0261c350338d8c8c6040518663ffffffff1660e01b815260040161254694939291906145b4565b60206040518083038160008887f1158015612565573d6000803e3d6000fd5b50505050506040513d601f19601f8201168201806040525081019061258a9190614658565b505b8873ffffffffffffffffffffffffffffffffffffffff168a73ffffffffffffffffffffffffffffffffffffffff167fddf252ad1be2c89b69c2b068fc378daa952ba7f163c4a11628f55a4df523b3ef8a6040516125e99190613536565b60405180910390a350505050505050505050565b600033905090565b600073ffffffffffffffffffffffffffffffffffffffff168173ffffffffffffffffffffffffffffffffffffffff1603612674576040517f08c379a000000000000000000000000000000000000000000000000000000000815260040161266b90614238565b60405180910390fd5b601060008273ffffffffffffffffffffffffffffffffffffffff1673ffffffffffffffffffffffffffffffffffffffff16815260200190815260200160002060009054906101000a900460ff16612700576040517f08c379a00000000000000000000000000000000000000000000000000000000081526004016126f7906146d1565b60405180910390fd5b6000601060008373ffffffffffffffffffffffffffffffffffffffff1673ffffffffffffffffffffffffffffffffffffffff16815260200190815260200160002060006101000a81548160ff0219169083151502179055508073ffffffffffffffffffffffffffffffffffffffff167fe94479a9f7e1952cc78f2d6baab678adc1b772d936c6583def489e524cb6669260405160405180910390a250565b60006127e083836040518060400160405280601e81526020017f536166654d6174683a207375627472616374696f6e206f766572666c6f77000081525061316f565b905092915050565b600073ffffffffffffffffffffffffffffffffffffffff166007600083815260200190815260200160002060009054906101000a900473ffffffffffffffffffffffffffffffffffffffff1673ffffffffffffffffffffffffffffffffffffffff161461288a576040517f08c379a000000000000000000000000000000000000000000000000000000000815260040161288190613d16565b60405180910390fd5b6128948282612fe4565b806005600060045481526020019081526020016000208190555060045460066000838152602001908152602001600020819055506128de60016004546131d390919063ffffffff16565b6004819055508173ffffffffffffffffffffffffffffffffffffffff16600073ffffffffffffffffffffffffffffffffffffffff167fddf252ad1be2c89b69c2b068fc378daa952ba7f163c4a11628f55a4df523b3ef836040516129429190613536565b60405180910390a35050565b6000600360009054906101000a900473ffffffffffffffffffffffffffffffffffffffff16905081600360006101000a81548173ffffffffffffffffffffffffffffffffffffffff021916908373ffffffffffffffffffffffffffffffffffffffff1602179055508173ffffffffffffffffffffffffffffffffffffffff168173ffffffffffffffffffffffffffffffffffffffff167f8be0079c531659141344cd1fd0a4f28419497f9722a3daafe3b4186f6b6457e060405160405180910390a35050565b600073ffffffffffffffffffffffffffffffffffffffff168173ffffffffffffffffffffffffffffffffffffffff1603612a83576040517f08c379a0000000000000000000000000000000000000000000000000000000008152600401612a7a90614238565b60405180910390fd5b601060008273ffffffffffffffffffffffffffffffffffffffff1673ffffffffffffffffffffffffffffffffffffffff16815260200190815260200160002060009054906101000a900460ff1615612b10576040517f08c379a0000000000000000000000000000000000000000000000000000000008152600401612b079061473d565b60405180910390fd5b6001601060008373ffffffffffffffffffffffffffffffffffffffff1673ffffffffffffffffffffffffffffffffffffffff16815260200190815260200160002060006101000a81548160ff0219169083151502179055508073ffffffffffffffffffffffffffffffffffffffff167f6ae172837ea30b801fbfcdd4108aa1d5bf8ff775444fd70256b44e6bf3dfc3f660405160405180910390a250565b6060600e60008381526020019081526020016000208054612bce90613c99565b80601f0160208091040260200160405190810160405280929190818152602001828054612bfa90613c99565b8015612c475780601f10612c1c57610100808354040283529160200191612c47565b820191906000526020600020905b815481529060010190602001808311612c2a57829003601f168201915b50505050509050919050565b60008273ffffffffffffffffffffffffffffffffffffffff166009600084815260200190815260200160002060009054906101000a900473ffffffffffffffffffffffffffffffffffffffff1673ffffffffffffffffffffffffffffffffffffffff1614905092915050565b600073ffffffffffffffffffffffffffffffffffffffff168273ffffffffffffffffffffffffffffffffffffffff1603612d2e576040517f08c379a0000000000000000000000000000000000000000000000000000000008152600401612d2590614238565b60405180910390fd5b6000600b60008381526020019081526020016000205490506000612d9e6001600a60008773ffffffffffffffffffffffffffffffffffffffff1673ffffffffffffffffffffffffffffffffffffffff1681526020019081526020016000208054905061279e90919063ffffffff16565b90506000600a60008673ffffffffffffffffffffffffffffffffffffffff1673ffffffffffffffffffffffffffffffffffffffff1681526020019081526020016000208281548110612df357612df2613f78565b5b9060005260206000200154905060006007600086815260200190815260200160002060006101000a81548173ffffffffffffffffffffffffffffffffffffffff021916908373ffffffffffffffffffffffffffffffffffffffff16021790555080600a60008773ffffffffffffffffffffffffffffffffffffffff1673ffffffffffffffffffffffffffffffffffffffff1681526020019081526020016000208481548110612ea557612ea4613f78565b5b906000526020600020018190555082600b600083815260200190815260200160002081905550600a60008673ffffffffffffffffffffffffffffffffffffffff1673ffffffffffffffffffffffffffffffffffffffff168152602001908152602001600020805480612f1a57612f1961475d565b5b600190038181906000526020600020016000905590556000600a60008773ffffffffffffffffffffffffffffffffffffffff1673ffffffffffffffffffffffffffffffffffffffff1681526020019081526020016000208054905003612fc657600a60008673ffffffffffffffffffffffffffffffffffffffff1673ffffffffffffffffffffffffffffffffffffffff1681526020019081526020016000206000612fc591906132ef565b5b600b6000858152602001908152602001600020600090555050505050565b600073ffffffffffffffffffffffffffffffffffffffff168273ffffffffffffffffffffffffffffffffffffffff1603613053576040517f08c379a000000000000000000000000000000000000000000000000000000000815260040161304a90614238565b60405180910390fd5b816007600083815260200190815260200160002060006101000a81548173ffffffffffffffffffffffffffffffffffffffff021916908373ffffffffffffffffffffffffffffffffffffffff1602179055506000600a60008473ffffffffffffffffffffffffffffffffffffffff1673ffffffffffffffffffffffffffffffffffffffff168152602001908152602001600020805490509050600a60008473ffffffffffffffffffffffffffffffffffffffff1673ffffffffffffffffffffffffffffffffffffffff16815260200190815260200160002082908060018154018082558091505060019003906000526020600020016000909190919091505580600b600084815260200190815260200160002081905550505050565b60008383111582906131b7576040517f08c379a00000000000000000000000000000000000000000000000000000000081526004016131ae91906133c6565b60405180910390fd5b50600083856131c691906147bb565b9050809150509392505050565b60008082846131e291906147ef565b905083811015613227576040517f08c379a000000000000000000000000000000000000000000000000000000000815260040161321e90614891565b60405180910390fd5b8091505092915050565b82805461323d90613c99565b90600052602060002090601f01602090048101928261325f57600085556132a6565b82601f1061327857805160ff19168380011785556132a6565b828001600101855582156132a6579182015b828111156132a557825182559160200191906001019061328a565b5b5090506132b39190613310565b5090565b6040518060c0016040528060001515815260200160008152602001606081526020016060815260200160608152602001606081525090565b508054600082559060005260206000209081019061330d9190613310565b50565b5b80821115613329576000816000905550600101613311565b5090565b600081519050919050565b600082825260208201905092915050565b60005b8381101561336757808201518184015260208101905061334c565b83811115613376576000848401525b50505050565b6000601f19601f8301169050919050565b60006133988261332d565b6133a28185613338565b93506133b2818560208601613349565b6133bb8161337c565b840191505092915050565b600060208201905081810360008301526133e0818461338d565b905092915050565b6000604051905090565b600080fd5b600080fd5b6000819050919050565b61340f816133fc565b811461341a57600080fd5b50565b60008135905061342c81613406565b92915050565b600060208284031215613448576134476133f2565b5b60006134568482850161341d565b91505092915050565b600073ffffffffffffffffffffffffffffffffffffffff82169050919050565b600061348a8261345f565b9050919050565b61349a8161347f565b82525050565b60006020820190506134b56000830184613491565b92915050565b6134c48161347f565b81146134cf57600080fd5b50565b6000813590506134e1816134bb565b92915050565b600080604083850312156134fe576134fd6133f2565b5b600061350c858286016134d2565b925050602061351d8582860161341d565b9150509250929050565b613530816133fc565b82525050565b600060208201905061354b6000830184613527565b92915050565b6000819050919050565b600061357661357161356c8461345f565b613551565b61345f565b9050919050565b60006135888261355b565b9050919050565b600061359a8261357d565b9050919050565b6135aa8161358f565b82525050565b60006020820190506135c560008301846135a1565b92915050565b6000806000606084860312156135e4576135e36133f2565b5b60006135f2868287016134d2565b9350506020613603868287016134d2565b92505060406136148682870161341d565b9150509250925092565b600060208284031215613634576136336133f2565b5b6000613642848285016134d2565b91505092915050565b600080fd5b600080fd5b7f4e487b7100000000000000000000000000000000000000000000000000000000600052604160045260246000fd5b61368d8261337c565b810181811067ffffffffffffffff821117156136ac576136ab613655565b5b80604052505050565b60006136bf6133e8565b90506136cb8282613684565b919050565b600067ffffffffffffffff8211156136eb576136ea613655565b5b6136f48261337c565b9050602081019050919050565b82818337600083830152505050565b600061372361371e846136d0565b6136b5565b90508281526020810184848401111561373f5761373e613650565b5b61374a848285613701565b509392505050565b600082601f8301126137675761376661364b565b5b8135613777848260208601613710565b91505092915050565b600080600080600060a0868803121561379c5761379b6133f2565b5b60006137aa888289016134d2565b955050602086013567ffffffffffffffff8111156137cb576137ca6133f7565b5b6137d788828901613752565b945050604086013567ffffffffffffffff8111156137f8576137f76133f7565b5b61380488828901613752565b935050606086013567ffffffffffffffff811115613825576138246133f7565b5b61383188828901613752565b925050608086013567ffffffffffffffff811115613852576138516133f7565b5b61385e88828901613752565b9150509295509295909350565b60008115159050919050565b6138808161386b565b82525050565b61388f816133fc565b82525050565b600082825260208201905092915050565b60006138b18261332d565b6138bb8185613895565b93506138cb818560208601613349565b6138d48161337c565b840191505092915050565b600060c0830160008301516138f76000860182613877565b50602083015161390a6020860182613886565b506040830151848203604086015261392282826138a6565b9150506060830151848203606086015261393c82826138a6565b9150506080830151848203608086015261395682826138a6565b91505060a083015184820360a086015261397082826138a6565b9150508091505092915050565b6000602082019050818103600083015261399781846138df565b905092915050565b6139a88161386b565b81146139b357600080fd5b50565b6000813590506139c58161399f565b92915050565b600080604083850312156139e2576139e16133f2565b5b60006139f0858286016134d2565b9250506020613a01858286016139b6565b9150509250929050565b613a148161386b565b82525050565b6000602082019050613a2f6000830184613a0b565b92915050565b600081519050919050565b600082825260208201905092915050565b6000819050602082019050919050565b6000613a6d8383613886565b60208301905092915050565b6000602082019050919050565b6000613a9182613a35565b613a9b8185613a40565b9350613aa683613a51565b8060005b83811015613ad7578151613abe8882613a61565b9750613ac983613a79565b925050600181019050613aaa565b5085935050505092915050565b60006020820190508181036000830152613afe8184613a86565b905092915050565b600067ffffffffffffffff821115613b2157613b20613655565b5b613b2a8261337c565b9050602081019050919050565b6000613b4a613b4584613b06565b6136b5565b905082815260208101848484011115613b6657613b65613650565b5b613b71848285613701565b509392505050565b600082601f830112613b8e57613b8d61364b565b5b8135613b9e848260208601613b37565b91505092915050565b60008060008060808587031215613bc157613bc06133f2565b5b6000613bcf878288016134d2565b9450506020613be0878288016134d2565b9350506040613bf18782880161341d565b925050606085013567ffffffffffffffff811115613c1257613c116133f7565b5b613c1e87828801613b79565b91505092959194509250565b60008060408385031215613c4157613c406133f2565b5b6000613c4f858286016134d2565b9250506020613c60858286016134d2565b9150509250929050565b7f4e487b7100000000000000000000000000000000000000000000000000000000600052602260045260246000fd5b60006002820490506001821680613cb157607f821691505b602082108103613cc457613cc3613c6a565b5b50919050565b7f4e465420494420686173206e6f206f776e657273686970000000000000000000600082015250565b6000613d00601783613338565b9150613d0b82613cca565b602082019050919050565b60006020820190508181036000830152613d2f81613cf3565b9050919050565b7f6e6f74204e4654204944206f776e6572206f72206167656e7400000000000000600082015250565b6000613d6c601983613338565b9150613d7782613d36565b602082019050919050565b60006020820190508181036000830152613d9b81613d5f565b9050919050565b7f616c7265616479206f776e6572206f66204e4654204944000000000000000000600082015250565b6000613dd8601783613338565b9150613de382613da2565b602082019050919050565b60006020820190508181036000830152613e0781613dcb565b9050919050565b7f616c726561647920617574686f72697a65642075736572206f66204e4654204960008201527f4400000000000000000000000000000000000000000000000000000000000000602082015250565b6000613e6a602183613338565b9150613e7582613e0e565b604082019050919050565b60006020820190508181036000830152613e9981613e5d565b9050919050565b7f696e76616c6964206f776e657220616464726573730000000000000000000000600082015250565b6000613ed6601583613338565b9150613ee182613ea0565b602082019050919050565b60006020820190508181036000830152613f0581613ec9565b9050919050565b7f696e76616c696420546f6b656e20696e64657800000000000000000000000000600082015250565b6000613f42601383613338565b9150613f4d82613f0c565b602082019050919050565b60006020820190508181036000830152613f7181613f35565b9050919050565b7f4e487b7100000000000000000000000000000000000000000000000000000000600052603260045260246000fd5b7f6e6f7420612077686974656c697374206d616e61676572000000000000000000600082015250565b6000613fdd601783613338565b9150613fe882613fa7565b602082019050919050565b6000602082019050818103600083015261400c81613fd0565b9050919050565b7f4f776e61626c653a2063616c6c6572206973206e6f7420746865206f776e6572600082015250565b6000614049602083613338565b915061405482614013565b602082019050919050565b600060208201905081810360008301526140788161403c565b9050919050565b60006040820190506140946000830185613527565b6140a16020830184613491565b9392505050565b7f696e76616c696420757365722061646472657373000000000000000000000000600082015250565b60006140de601483613338565b91506140e9826140a8565b602082019050919050565b6000602082019050818103600083015261410d816140d1565b9050919050565b7f5265706561742073657474696e67000000000000000000000000000000000000600082015250565b600061414a600e83613338565b915061415582614114565b602082019050919050565b600060208201905081810360008301526141798161413d565b9050919050565b7f746865206167656e7420686173206265656e2073657420757000000000000000600082015250565b60006141b6601983613338565b91506141c182614180565b602082019050919050565b600060208201905081810360008301526141e5816141a9565b9050919050565b7f696e76616c696420616464726573730000000000000000000000000000000000600082015250565b6000614222600f83613338565b915061422d826141ec565b602082019050919050565b6000602082019050818103600083015261425181614215565b9050919050565b7f4f776e61626c653a206e6577206f776e657220697320746865207a65726f206160008201527f6464726573730000000000000000000000000000000000000000000000000000602082015250565b60006142b4602683613338565b91506142bf82614258565b604082019050919050565b600060208201905081810360008301526142e3816142a7565b9050919050565b7f6e6f74204e4654204944206f776e6572206f72206167656e74206f722061757460008201527f686f72697a656420757365720000000000000000000000000000000000000000602082015250565b6000614346602c83613338565b9150614351826142ea565b604082019050919050565b6000602082019050818103600083015261437581614339565b9050919050565b60006060820190506143916000830186613491565b61439e6020830185613491565b6143ab6040830184613527565b949350505050565b6000815190506143c28161399f565b92915050565b6000602082840312156143de576143dd6133f2565b5b60006143ec848285016143b3565b91505092915050565b7f63616e206e6f74207472616e7366657200000000000000000000000000000000600082015250565b600061442b601083613338565b9150614436826143f5565b602082019050919050565b6000602082019050818103600083015261445a8161441e565b9050919050565b7f6e6f74204e4654204944206f776e657200000000000000000000000000000000600082015250565b6000614497601083613338565b91506144a282614461565b602082019050919050565b600060208201905081810360008301526144c68161448a565b9050919050565b7f746f2061646472657373206973207468652073616d652061732066726f6d206160008201527f6464726573730000000000000000000000000000000000000000000000000000602082015250565b6000614529602683613338565b9150614534826144cd565b604082019050919050565b600060208201905081810360008301526145588161451c565b9050919050565b600081519050919050565b600082825260208201905092915050565b60006145868261455f565b614590818561456a565b93506145a0818560208601613349565b6145a98161337c565b840191505092915050565b60006080820190506145c96000830187613491565b6145d66020830186613491565b6145e36040830185613527565b81810360608301526145f5818461457b565b905095945050505050565b60007fffffffff0000000000000000000000000000000000000000000000000000000082169050919050565b61463581614600565b811461464057600080fd5b50565b6000815190506146528161462c565b92915050565b60006020828403121561466e5761466d6133f2565b5b600061467c84828501614643565b91505092915050565b7f6e6f7420746865206d696e746572206f66204e46540000000000000000000000600082015250565b60006146bb601583613338565b91506146c682614685565b602082019050919050565b600060208201905081810360008301526146ea816146ae565b9050919050565b7f616c7265616479206d696e746572206f66204e46540000000000000000000000600082015250565b6000614727601583613338565b9150614732826146f1565b602082019050919050565b600060208201905081810360008301526147568161471a565b9050919050565b7f4e487b7100000000000000000000000000000000000000000000000000000000600052603160045260246000fd5b7f4e487b7100000000000000000000000000000000000000000000000000000000600052601160045260246000fd5b60006147c6826133fc565b91506147d1836133fc565b9250828210156147e4576147e361478c565b5b828203905092915050565b60006147fa826133fc565b9150614805836133fc565b9250827fffffffffffffffffffffffffffffffffffffffffffffffffffffffffffffffff0382111561483a5761483961478c565b5b828201905092915050565b7f536166654d6174683a206164646974696f6e206f766572666c6f770000000000600082015250565b600061487b601b83613338565b915061488682614845565b602082019050919050565b600060208201905081810360008301526148aa8161486e565b905091905056fea26469706673582212206866f346c57153afd943d337a1b1648c6ea1cefaa427544b8e8c5bff25a505db64736f6c634300080d0033",
  "immutableReferences": {},
  "source": "// SPDX-License-Identifier: MIT\npragma solidity >=0.6.10 <0.9.0;\n\nimport \"./SafeMath.sol\";\n\nimport \"./FlowInsightERC721BaseEnumerable.sol\";\nimport \"./FlowInsightERC721NFTMetadata.sol\";\n\n// solium-disable-next-line no-empty-blocks\ncontract FlowInsightERC721NFT is FlowInsightERC721BaseEnumerable, FlowInsightERC721NFTMetadata {\n\n    using SafeMath for uint256;\n\n    event MinterAdded(address indexed account);\n    event MinterRemoved(address indexed account);\n    event NFTCreated(\n        uint256 nft_id,\n        address owner\n    );\n\n    struct FlowInsightNFT {\n        bool special;\n        uint256 createdAt;\n        string name;\n        string desc;\n        string displayUrl;\n        string metaDataHash;\n    }\n\n    FlowInsightNFT[] FlowInsight;\n    mapping (address => bool) minter;\n    mapping (uint8 => uint256[]) creatingNFT;\n\n    constructor (\n        string memory _nftName,\n        string memory _nftSymbol\n    ) public\n    {\n        nftName = _nftName;\n        nftSymbol = _nftSymbol;\n\n    }\n\n    function addMinter(address account) public onlyOwner {\n        _addMinter(account);\n    }\n\n    function _addMinter(address account) internal {\n        require(account != address(0), \"invalid address\");\n        require(!minter[account], \"already minter of NFT\");\n\n        minter[account] = true;\n\n        emit MinterAdded(account);\n    }\n\n    function removeMinter(address account) public onlyOwner {\n        _removeMinter(account);\n    }\n\n    function _removeMinter(address account) internal {\n        require(account != address(0), \"invalid address\");\n        require(minter[account], \"not the minter of NFT\");\n\n        minter[account] = false;\n\n        emit MinterRemoved(account);\n    }\n\n    modifier onlyMinter() {\n        require(minter[msg.sender], \"not the minter of NFT\");\n        _;\n    }\n\n    function isMinter(address account) public view returns (bool) {\n        require(account != address(0), \"invalid address\");\n        bool accountIsMinter = minter[account];\n        return accountIsMinter;\n    }\n\n    function getNFTMetadata (uint256 _tokenId) \n        public view \n        returns (FlowInsightNFT memory)\n    {\n        return FlowInsight[_tokenId];\n    }\n\n    // When someone buy this NFT, mint one for him\n    // Add modifier on-sale or off-sale\n    function createNFT(address _to, string memory _name, string memory _desc, string memory _displayUrl, string memory _metaDataHash) public returns (uint256 _FlowInsightId)\n    {\n\n        FlowInsightNFT memory _FlowInsight = FlowInsightNFT(false, block.timestamp, _name, _desc, _displayUrl, _metaDataHash);\n        FlowInsight.push(_FlowInsight);\n        _FlowInsightId = FlowInsight.length.sub(1);\n        _mint(_to, _FlowInsightId);\n        // _setTokenUri(_FlowInsightId, _tokenURI);\n\n        emit NFTCreated(_FlowInsightId, _to);\n\n        return _FlowInsightId;\n    }\n}",
  "sourcePath": "/Users/superlsj/project/MF/code/web3/project/truffle-contract/contracts/FlowInsightERC721NFT.sol",
  "compiler": {
    "name": "solc",
    "version": "0.8.13+commit.abaa5c0e.Emscripten.clang"
  },
  "schemaVersion": "3.4.3",
  "updatedAt": "2022-04-20T08:11:40.942Z",
  "networkType": "ethereum",
  "devdoc": {
    "kind": "dev",
    "methods": {
      "approve(address,uint256)": {
        "details": "The zero address indicates there is no approved address.Throws unless `msg.sender` is the current NFT owner, or an authorized  operator of the current owner.",
        "params": {
          "_approved": "The new approved NFT controller",
          "_tokenId": "The NFT to approve"
        }
      },
      "balanceOf(address)": {
        "details": "NFTs assigned to the zero address are considered invalid, and this  function throws for queries about the zero address.",
        "params": {
          "_owner": "An address for whom to query the balance"
        },
        "returns": {
          "_0": "The number of NFTs owned by `_owner`, possibly zero"
        }
      },
      "getApproved(uint256)": {
        "details": "Throws if `_tokenId` is not a valid NFT",
        "params": {
          "_tokenId": "The NFT to find the approved address for"
        },
        "returns": {
          "_0": "The approved address for this NFT, or the zero address if there is none"
        }
      },
      "isApprovedForAll(address,address)": {
        "params": {
          "_operator": "The address that acts on behalf of the owner",
          "_owner": "The address that owns the NFTs"
        },
        "returns": {
          "_0": "True if `_operator` is an approved operator for `_owner`, false otherwise"
        }
      },
      "name()": {
        "details": "Returns a descriptive name for a collection of NFTokens.",
        "returns": {
          "_name": "Representing name."
        }
      },
      "owner()": {
        "details": "Returns the address of the current owner."
      },
      "ownerOf(uint256)": {
        "details": "NFTs assigned to zero address are considered invalid, and queries  about them do throw.",
        "params": {
          "_tokenId": "The identifier for an NFT"
        },
        "returns": {
          "_0": "The address of the owner of the NFT"
        }
      },
      "renounceOwnership()": {
        "details": "Leaves the contract without owner. It will not be possible to call `onlyOwner` functions anymore. Can only be called by the current owner. NOTE: Renouncing ownership will leave the contract without an owner, thereby removing any functionality that is only available to the owner."
      },
      "safeTransferFrom(address,address,uint256)": {
        "details": "This works identically to the other function with an extra data parameter,  except this function just sets data to []",
        "params": {
          "_from": "The current owner of the NFT",
          "_to": "The new owner",
          "_tokenId": "The NFT to transfer"
        }
      },
      "safeTransferFrom(address,address,uint256,bytes)": {
        "details": "Throws unless `msg.sender` is the current owner, an authorized  operator, or the approved address for this NFT. Throws if `_from` is  not the current owner. Throws if `_to` is the zero address. Throws if  `_tokenId` is not a valid NFT. When transfer is complete, this function  checks if `_to` is a smart contract (code size > 0). If so, it calls  `onERC721Received` on `_to` and throws if the return value is not  `bytes4(keccak256(\"onERC721Received(address,uint256,bytes)\"))`.",
        "params": {
          "_data": "Additional data with no specified format, sent in call to `_to`",
          "_from": "The current owner of the NFT",
          "_to": "The new owner",
          "_tokenId": "The NFT to transfer"
        }
      },
      "setApprovalForAll(address,bool)": {
        "details": "Emits the ApprovalForAll event",
        "params": {
          "_approved": "True if the operators is approved, false to revoke approval",
          "_operator": "Address to add to the set of authorized operators."
        }
      },
      "symbol()": {
        "details": "Returns an abbreviated name for NFTokens.",
        "returns": {
          "_symbol": "Representing symbol."
        }
      },
      "tokenByIndex(uint256)": {
        "details": "Throws if `_index` >= `totalSupply()`.",
        "params": {
          "_index": "A counter less than `totalSupply()`"
        },
        "returns": {
          "_0": "The token identifier for the `_index`th NFT,  (sort order not specified)"
        }
      },
      "tokenOfOwnerByIndex(address,uint256)": {
        "details": "Throws if `_index` >= `balanceOf(_owner)` or if  `_owner` is the zero address, representing invalid NFTs.",
        "params": {
          "_index": "A counter less than `balanceOf(_owner)`",
          "_owner": "An address where we are interested in NFTs owned by them"
        },
        "returns": {
          "_tokenId": "The token identifier for the `_index`th NFT assigned to `_owner`,   (sort order not specified)"
        }
      },
      "tokenURI(uint256)": {
        "details": "A distinct URI (RFC 3986) for a given NFT.",
        "params": {
          "_tokenId": "Id for which we want uri."
        },
        "returns": {
          "_0": "URI of _tokenId."
        }
      },
      "totalSupply()": {
        "returns": {
          "_0": "A count of valid NFTs tracked by this contract, where each one of  them has an assigned and queryable owner not equal to the zero address"
        }
      },
      "transferFrom(address,address,uint256)": {
        "details": "Throws unless `msg.sender` is the current owner, an authorized  operator, or the approved address for this NFT. Throws if `_from` is  not the current owner. Throws if `_to` is the zero address. Throws if  `_tokenId` is not a valid NFT.",
        "params": {
          "_from": "The current owner of the NFT",
          "_to": "The new owner",
          "_tokenId": "The NFT to transfer"
        }
      },
      "transferOwnership(address)": {
        "details": "Transfers ownership of the contract to a new account (`newOwner`). Can only be called by the current owner."
      }
    },
    "version": 1
  },
  "userdoc": {
    "kind": "user",
    "methods": {
      "approve(address,uint256)": {
        "notice": "Set or reaffirm the approved address for an NFT"
      },
      "balanceOf(address)": {
        "notice": "Count all NFTs assigned to an owner"
      },
      "getApproved(uint256)": {
        "notice": "Get the approved address for a single NFT"
      },
      "isApprovedForAll(address,address)": {
        "notice": "Query if an address is an authorized operator for another address"
      },
      "ownerOf(uint256)": {
        "notice": "Find the owner of an NFT"
      },
      "safeTransferFrom(address,address,uint256)": {
        "notice": "Transfers the ownership of an NFT from one address to another address"
      },
      "safeTransferFrom(address,address,uint256,bytes)": {
        "notice": "Transfers the ownership of an NFT from one address to another address"
      },
      "setApprovalForAll(address,bool)": {
        "notice": "Enable or disable approval for a third party (\"operator\") to manage  all your asset."
      },
      "tokenByIndex(uint256)": {
        "notice": "Enumerate valid NFTs"
      },
      "tokenOfOwnerByIndex(address,uint256)": {
        "notice": "Enumerate NFTs assigned to an owner"
      },
      "totalSupply()": {
        "notice": "Count NFTs tracked by this contract"
      },
      "transferFrom(address,address,uint256)": {
        "notice": "Transfer ownership of an NFT -- THE CALLER IS RESPONSIBLE  TO CONFIRM THAT `_to` IS CAPABLE OF RECEIVING NFTS OR ELSE  THEY MAY BE PERMANENTLY LOST"
      }
    },
    "version": 1
  }
}