{
  "contractName": "FlowInsightERC721NFT",
  "abi": [
    {
      "inputs": [
        {
          "internalType": "string",
          "name": "_nftName",
          "type": "string"
        },
        {
          "internalType": "string",
          "name": "_nftSymbol",
          "type": "string"
        }
      ],
      "stateMutability": "nonpayable",
      "type": "constructor"
    },
    {
      "anonymous": false,
      "inputs": [
        {
          "indexed": true,
          "internalType": "address",
          "name": "_owner",
          "type": "address"
        },
        {
          "indexed": true,
          "internalType": "address",
          "name": "_approved",
          "type": "address"
        },
        {
          "indexed": false,
          "internalType": "uint256",
          "name": "_tokenId",
          "type": "uint256"
        }
      ],
      "name": "Approval",
      "type": "event"
    },
    {
      "anonymous": false,
      "inputs": [
        {
          "indexed": true,
          "internalType": "address",
          "name": "_owner",
          "type": "address"
        },
        {
          "indexed": true,
          "internalType": "address",
          "name": "_operator",
          "type": "address"
        },
        {
          "indexed": false,
          "internalType": "bool",
          "name": "_approved",
          "type": "bool"
        }
      ],
      "name": "ApprovalForAll",
      "type": "event"
    },
    {
      "anonymous": false,
      "inputs": [
        {
          "indexed": true,
          "internalType": "address",
          "name": "account",
          "type": "address"
        }
      ],
      "name": "MinterAdded",
      "type": "event"
    },
    {
      "anonymous": false,
      "inputs": [
        {
          "indexed": true,
          "internalType": "address",
          "name": "account",
          "type": "address"
        }
      ],
      "name": "MinterRemoved",
      "type": "event"
    },
    {
      "anonymous": false,
      "inputs": [
        {
          "indexed": true,
          "internalType": "uint256",
          "name": "nft_id",
          "type": "uint256"
        },
        {
          "indexed": true,
          "internalType": "address",
          "name": "owner",
          "type": "address"
        }
      ],
      "name": "NFTCreated",
      "type": "event"
    },
    {
      "anonymous": false,
      "inputs": [
        {
          "indexed": true,
          "internalType": "address",
          "name": "previousOwner",
          "type": "address"
        },
        {
          "indexed": true,
          "internalType": "address",
          "name": "newOwner",
          "type": "address"
        }
      ],
      "name": "OwnershipTransferred",
      "type": "event"
    },
    {
      "anonymous": false,
      "inputs": [
        {
          "indexed": true,
          "internalType": "address",
          "name": "_from",
          "type": "address"
        },
        {
          "indexed": true,
          "internalType": "address",
          "name": "_to",
          "type": "address"
        },
        {
          "indexed": false,
          "internalType": "uint256",
          "name": "_tokenId",
          "type": "uint256"
        }
      ],
      "name": "Transfer",
      "type": "event"
    },
    {
      "anonymous": false,
      "inputs": [
        {
          "indexed": false,
          "internalType": "string",
          "name": "key",
          "type": "string"
        }
      ],
      "name": "UpdateKey",
      "type": "event"
    },
    {
      "inputs": [
        {
          "internalType": "address",
          "name": "_address",
          "type": "address"
        }
      ],
      "name": "_isContract",
      "outputs": [
        {
          "internalType": "bool",
          "name": "",
          "type": "bool"
        }
      ],
      "stateMutability": "view",
      "type": "function"
    },
    {
      "inputs": [
        {
          "internalType": "address",
          "name": "_approved",
          "type": "address"
        },
        {
          "internalType": "uint256",
          "name": "_tokenId",
          "type": "uint256"
        }
      ],
      "name": "approve",
      "outputs": [],
      "stateMutability": "payable",
      "type": "function"
    },
    {
      "inputs": [
        {
          "internalType": "address",
          "name": "_owner",
          "type": "address"
        }
      ],
      "name": "balanceOf",
      "outputs": [
        {
          "internalType": "uint256",
          "name": "",
          "type": "uint256"
        }
      ],
      "stateMutability": "view",
      "type": "function"
    },
    {
      "inputs": [
        {
          "internalType": "uint256",
          "name": "_tokenId",
          "type": "uint256"
        }
      ],
      "name": "getApproved",
      "outputs": [
        {
          "internalType": "address",
          "name": "",
          "type": "address"
        }
      ],
      "stateMutability": "view",
      "type": "function"
    },
    {
      "inputs": [],
      "name": "getTotalSupply",
      "outputs": [
        {
          "internalType": "uint256",
          "name": "",
          "type": "uint256"
        }
      ],
      "stateMutability": "view",
      "type": "function"
    },
    {
      "inputs": [
        {
          "internalType": "address",
          "name": "_owner",
          "type": "address"
        },
        {
          "internalType": "address",
          "name": "_operator",
          "type": "address"
        }
      ],
      "name": "isApprovedForAll",
      "outputs": [
        {
          "internalType": "bool",
          "name": "",
          "type": "bool"
        }
      ],
      "stateMutability": "view",
      "type": "function"
    },
    {
      "inputs": [],
      "name": "marketplaceManager",
      "outputs": [
        {
          "internalType": "contract FlowInsightMarketplaceManager",
          "name": "",
          "type": "address"
        }
      ],
      "stateMutability": "view",
      "type": "function"
    },
    {
      "inputs": [],
      "name": "name",
      "outputs": [
        {
          "internalType": "string",
          "name": "_name",
          "type": "string"
        }
      ],
      "stateMutability": "view",
      "type": "function"
    },
    {
      "inputs": [
        {
          "internalType": "address",
          "name": "_owner",
          "type": "address"
        }
      ],
      "name": "ownedTokens",
      "outputs": [
        {
          "internalType": "uint256[]",
          "name": "",
          "type": "uint256[]"
        }
      ],
      "stateMutability": "view",
      "type": "function"
    },
    {
      "inputs": [],
      "name": "owner",
      "outputs": [
        {
          "internalType": "address",
          "name": "",
          "type": "address"
        }
      ],
      "stateMutability": "view",
      "type": "function"
    },
    {
      "inputs": [
        {
          "internalType": "uint256",
          "name": "_tokenId",
          "type": "uint256"
        }
      ],
      "name": "ownerOf",
      "outputs": [
        {
          "internalType": "address",
          "name": "",
          "type": "address"
        }
      ],
      "stateMutability": "view",
      "type": "function"
    },
    {
      "inputs": [],
      "name": "renounceOwnership",
      "outputs": [],
      "stateMutability": "nonpayable",
      "type": "function"
    },
    {
      "inputs": [
        {
          "internalType": "address",
          "name": "_from",
          "type": "address"
        },
        {
          "internalType": "address",
          "name": "_to",
          "type": "address"
        },
        {
          "internalType": "uint256",
          "name": "_tokenId",
          "type": "uint256"
        }
      ],
      "name": "safeTransferFrom",
      "outputs": [],
      "stateMutability": "payable",
      "type": "function"
    },
    {
      "inputs": [
        {
          "internalType": "address",
          "name": "_from",
          "type": "address"
        },
        {
          "internalType": "address",
          "name": "_to",
          "type": "address"
        },
        {
          "internalType": "uint256",
          "name": "_tokenId",
          "type": "uint256"
        },
        {
          "internalType": "bytes",
          "name": "_data",
          "type": "bytes"
        }
      ],
      "name": "safeTransferFrom",
      "outputs": [],
      "stateMutability": "payable",
      "type": "function"
    },
    {
      "inputs": [
        {
          "internalType": "address",
          "name": "_operator",
          "type": "address"
        },
        {
          "internalType": "bool",
          "name": "_approved",
          "type": "bool"
        }
      ],
      "name": "setApprovalForAll",
      "outputs": [],
      "stateMutability": "nonpayable",
      "type": "function"
    },
    {
      "inputs": [
        {
          "internalType": "address",
          "name": "_marketplace",
          "type": "address"
        },
        {
          "internalType": "bool",
          "name": "_whitelisted",
          "type": "bool"
        }
      ],
      "name": "setMarketplace",
      "outputs": [],
      "stateMutability": "nonpayable",
      "type": "function"
    },
    {
      "inputs": [
        {
          "internalType": "address",
          "name": "_manager",
          "type": "address"
        }
      ],
      "name": "setMarketplaceManager",
      "outputs": [],
      "stateMutability": "nonpayable",
      "type": "function"
    },
    {
      "inputs": [
        {
          "internalType": "address",
          "name": "_newSetter",
          "type": "address"
        }
      ],
      "name": "setWhitelistSetter",
      "outputs": [],
      "stateMutability": "nonpayable",
      "type": "function"
    },
    {
      "inputs": [],
      "name": "symbol",
      "outputs": [
        {
          "internalType": "string",
          "name": "_symbol",
          "type": "string"
        }
      ],
      "stateMutability": "view",
      "type": "function"
    },
    {
      "inputs": [
        {
          "internalType": "uint256",
          "name": "_index",
          "type": "uint256"
        }
      ],
      "name": "tokenByIndex",
      "outputs": [
        {
          "internalType": "uint256",
          "name": "",
          "type": "uint256"
        }
      ],
      "stateMutability": "view",
      "type": "function"
    },
    {
      "inputs": [
        {
          "internalType": "address",
          "name": "_owner",
          "type": "address"
        },
        {
          "internalType": "uint256",
          "name": "_index",
          "type": "uint256"
        }
      ],
      "name": "tokenOfOwnerByIndex",
      "outputs": [
        {
          "internalType": "uint256",
          "name": "_tokenId",
          "type": "uint256"
        }
      ],
      "stateMutability": "view",
      "type": "function"
    },
    {
      "inputs": [
        {
          "internalType": "uint256",
          "name": "_tokenId",
          "type": "uint256"
        }
      ],
      "name": "tokenURI",
      "outputs": [
        {
          "internalType": "string",
          "name": "",
          "type": "string"
        }
      ],
      "stateMutability": "view",
      "type": "function"
    },
    {
      "inputs": [],
      "name": "totalSupply",
      "outputs": [
        {
          "internalType": "uint256",
          "name": "",
          "type": "uint256"
        }
      ],
      "stateMutability": "view",
      "type": "function"
    },
    {
      "inputs": [
        {
          "internalType": "address",
          "name": "_from",
          "type": "address"
        },
        {
          "internalType": "address",
          "name": "_to",
          "type": "address"
        },
        {
          "internalType": "uint256",
          "name": "_tokenId",
          "type": "uint256"
        }
      ],
      "name": "transferFrom",
      "outputs": [],
      "stateMutability": "payable",
      "type": "function"
    },
    {
      "inputs": [
        {
          "internalType": "address",
          "name": "newOwner",
          "type": "address"
        }
      ],
      "name": "transferOwnership",
      "outputs": [],
      "stateMutability": "nonpayable",
      "type": "function"
    },
    {
      "inputs": [],
      "name": "whitelistSetterAddress",
      "outputs": [
        {
          "internalType": "address",
          "name": "",
          "type": "address"
        }
      ],
      "stateMutability": "view",
      "type": "function"
    },
    {
      "inputs": [
        {
          "internalType": "address",
          "name": "",
          "type": "address"
        }
      ],
      "name": "whitelistedMarketplace",
      "outputs": [
        {
          "internalType": "bool",
          "name": "",
          "type": "bool"
        }
      ],
      "stateMutability": "view",
      "type": "function"
    },
    {
      "inputs": [
        {
          "internalType": "address",
          "name": "account",
          "type": "address"
        }
      ],
      "name": "addMinter",
      "outputs": [],
      "stateMutability": "nonpayable",
      "type": "function"
    },
    {
      "inputs": [
        {
          "internalType": "address",
          "name": "account",
          "type": "address"
        }
      ],
      "name": "removeMinter",
      "outputs": [],
      "stateMutability": "nonpayable",
      "type": "function"
    },
    {
      "inputs": [
        {
          "internalType": "address",
          "name": "account",
          "type": "address"
        }
      ],
      "name": "isMinter",
      "outputs": [
        {
          "internalType": "bool",
          "name": "",
          "type": "bool"
        }
      ],
      "stateMutability": "view",
      "type": "function"
    },
    {
      "inputs": [
        {
          "internalType": "uint256",
          "name": "_tokenId",
          "type": "uint256"
        }
      ],
      "name": "getNFTMetadata",
      "outputs": [
        {
          "components": [
            {
              "internalType": "string",
              "name": "name",
              "type": "string"
            },
            {
              "internalType": "string",
              "name": "picURL",
              "type": "string"
            },
            {
              "internalType": "string",
              "name": "desc",
              "type": "string"
            },
            {
              "internalType": "string[]",
              "name": "property",
              "type": "string[]"
            },
            {
              "internalType": "string",
              "name": "key",
              "type": "string"
            },
            {
              "internalType": "string",
              "name": "privURL",
              "type": "string"
            }
          ],
          "internalType": "struct FlowInsightERC721NFT.FlowInsightNFT",
          "name": "",
          "type": "tuple"
        }
      ],
      "stateMutability": "view",
      "type": "function"
    },
    {
      "inputs": [
        {
          "internalType": "address",
          "name": "_to",
          "type": "address"
        },
        {
          "internalType": "string",
          "name": "_name",
          "type": "string"
        },
        {
          "internalType": "string",
          "name": "_picURL",
          "type": "string"
        },
        {
          "internalType": "string",
          "name": "_desc",
          "type": "string"
        },
        {
          "internalType": "string[]",
          "name": "_property",
          "type": "string[]"
        },
        {
          "internalType": "string",
          "name": "_key",
          "type": "string"
        },
        {
          "internalType": "string",
          "name": "_privURL",
          "type": "string"
        }
      ],
      "name": "createNFT",
      "outputs": [
        {
          "internalType": "uint256",
          "name": "_FlowInsightId",
          "type": "uint256"
        }
      ],
      "stateMutability": "nonpayable",
      "type": "function"
    },
    {
      "inputs": [
        {
          "internalType": "uint256",
          "name": "_tokenId",
          "type": "uint256"
        },
        {
          "internalType": "string",
          "name": "_key",
          "type": "string"
        }
      ],
      "name": "updateKey",
      "outputs": [
        {
          "internalType": "uint256",
          "name": "flag",
          "type": "uint256"
        }
      ],
      "stateMutability": "nonpayable",
      "type": "function"
    }
  ],
  "bytecode": "0x60806040523480156200001157600080fd5b5060405162004f9138038062004f918339818101604052810190620000379190620003ec565b336000806101000a81548173ffffffffffffffffffffffffffffffffffffffff021916908373ffffffffffffffffffffffffffffffffffffffff160217905550620000976200008b620000d160201b60201c565b620000d960201b60201c565b81600c9080519060200190620000af9291906200019f565b5080600d9080519060200190620000c89291906200019f565b505050620004d5565b600033905090565b6000600360009054906101000a900473ffffffffffffffffffffffffffffffffffffffff16905081600360006101000a81548173ffffffffffffffffffffffffffffffffffffffff021916908373ffffffffffffffffffffffffffffffffffffffff1602179055508173ffffffffffffffffffffffffffffffffffffffff168173ffffffffffffffffffffffffffffffffffffffff167f8be0079c531659141344cd1fd0a4f28419497f9722a3daafe3b4186f6b6457e060405160405180910390a35050565b828054620001ad90620004a0565b90600052602060002090601f016020900481019282620001d157600085556200021d565b82601f10620001ec57805160ff19168380011785556200021d565b828001600101855582156200021d579182015b828111156200021c578251825591602001919060010190620001ff565b5b5090506200022c919062000230565b5090565b5b808211156200024b57600081600090555060010162000231565b5090565b6000604051905090565b600080fd5b600080fd5b600080fd5b600080fd5b6000601f19601f8301169050919050565b7f4e487b7100000000000000000000000000000000000000000000000000000000600052604160045260246000fd5b620002b8826200026d565b810181811067ffffffffffffffff82111715620002da57620002d96200027e565b5b80604052505050565b6000620002ef6200024f565b9050620002fd8282620002ad565b919050565b600067ffffffffffffffff82111562000320576200031f6200027e565b5b6200032b826200026d565b9050602081019050919050565b60005b83811015620003585780820151818401526020810190506200033b565b8381111562000368576000848401525b50505050565b6000620003856200037f8462000302565b620002e3565b905082815260208101848484011115620003a457620003a362000268565b5b620003b184828562000338565b509392505050565b600082601f830112620003d157620003d062000263565b5b8151620003e38482602086016200036e565b91505092915050565b6000806040838503121562000406576200040562000259565b5b600083015167ffffffffffffffff8111156200042757620004266200025e565b5b6200043585828601620003b9565b925050602083015167ffffffffffffffff8111156200045957620004586200025e565b5b6200046785828601620003b9565b9150509250929050565b7f4e487b7100000000000000000000000000000000000000000000000000000000600052602260045260246000fd5b60006002820490506001821680620004b957607f821691505b602082108103620004cf57620004ce62000471565b5b50919050565b614aac80620004e56000396000f3fe6080604052600436106101ee5760003560e01c806370a082311161010d578063a22cb465116100a0578063b88d4fde1161006f578063b88d4fde14610732578063c4e41b221461074e578063c87b56dd14610779578063e985e9c5146107b6578063f2fde38b146107f3576101ee565b8063a22cb46514610652578063a306dfbe1461067b578063aa271e1a146106b8578063b12ab40f146106f5576101ee565b80637d48441f116100dc5780637d48441f146105965780638da5cb5b146105d357806395d89b41146105fe578063983b2d5614610629576101ee565b806370a08231146104dc578063715018a6146105195780637419e77a1461053057806378b08fc314610559576101ee565b80632ffb054e116101855780634f6ccce7116101545780634f6ccce7146103fc578063547a5eee146104395780636352211e146104625780636be9a6f11461049f576101ee565b80632ffb054e146103515780633092afd51461037a57806330d1ab4e146103a357806342842e0e146103e0576101ee565b806318160ddd116101c157806318160ddd146102a25780631889500c146102cd57806323b872dd146102f85780632f745c5914610314576101ee565b806306fdde03146101f3578063081812fc1461021e578063095ea7b31461025b5780631412409a14610277575b600080fd5b3480156101ff57600080fd5b5061020861081c565b604051610215919061345d565b60405180910390f35b34801561022a57600080fd5b50610245600480360381019061024091906134c9565b6108ae565b6040516102529190613537565b60405180910390f35b6102756004803603810190610270919061357e565b61098f565b005b34801561028357600080fd5b5061028c610c92565b6040516102999190613537565b60405180910390f35b3480156102ae57600080fd5b506102b7610cb6565b6040516102c491906135cd565b60405180910390f35b3480156102d957600080fd5b506102e2610cc0565b6040516102ef9190613647565b60405180910390f35b610312600480360381019061030d9190613662565b610ce6565b005b34801561032057600080fd5b5061033b6004803603810190610336919061357e565b610d08565b60405161034891906135cd565b60405180910390f35b34801561035d57600080fd5b50610378600480360381019061037391906136b5565b610e60565b005b34801561038657600080fd5b506103a1600480360381019061039c91906136b5565b610f32565b005b3480156103af57600080fd5b506103ca60048036038101906103c59190613817565b610fba565b6040516103d791906135cd565b60405180910390f35b6103fa60048036038101906103f59190613662565b611000565b005b34801561040857600080fd5b50610423600480360381019061041e91906134c9565b611022565b60405161043091906135cd565b60405180910390f35b34801561044557600080fd5b50610460600480360381019061045b91906136b5565b611083565b005b34801561046e57600080fd5b50610489600480360381019061048491906134c9565b611154565b6040516104969190613537565b60405180910390f35b3480156104ab57600080fd5b506104c660048036038101906104c191906134c9565b611235565b6040516104d39190613a2b565b60405180910390f35b3480156104e857600080fd5b5061050360048036038101906104fe91906136b5565b611624565b60405161051091906135cd565b60405180910390f35b34801561052557600080fd5b5061052e6116de565b005b34801561053c57600080fd5b5061055760048036038101906105529190613a85565b611766565b005b34801561056557600080fd5b50610580600480360381019061057b9190613bab565b6118e1565b60405161058d91906135cd565b60405180910390f35b3480156105a257600080fd5b506105bd60048036038101906105b891906136b5565b611a64565b6040516105ca9190613d04565b60405180910390f35b3480156105df57600080fd5b506105e8611a77565b6040516105f59190613537565b60405180910390f35b34801561060a57600080fd5b50610613611aa1565b604051610620919061345d565b60405180910390f35b34801561063557600080fd5b50610650600480360381019061064b91906136b5565b611b33565b005b34801561065e57600080fd5b5061067960048036038101906106749190613a85565b611bbb565b005b34801561068757600080fd5b506106a2600480360381019061069d91906136b5565b611d87565b6040516106af9190613d04565b60405180910390f35b3480156106c457600080fd5b506106df60048036038101906106da91906136b5565b611da7565b6040516106ec9190613d04565b60405180910390f35b34801561070157600080fd5b5061071c600480360381019061071791906136b5565b611e71565b6040516107299190613ddd565b60405180910390f35b61074c60048036038101906107479190613ea0565b611f77565b005b34801561075a57600080fd5b50610763611f8b565b60405161077091906135cd565b60405180910390f35b34801561078557600080fd5b506107a0600480360381019061079b91906134c9565b611f95565b6040516107ad919061345d565b60405180910390f35b3480156107c257600080fd5b506107dd60048036038101906107d89190613f23565b611fa7565b6040516107ea9190613d04565b60405180910390f35b3480156107ff57600080fd5b5061081a600480360381019061081591906136b5565b61203b565b005b6060600c805461082b90613f92565b80601f016020809104026020016040519081016040528092919081815260200182805461085790613f92565b80156108a45780601f10610879576101008083540402835291602001916108a4565b820191906000526020600020905b81548152906001019060200180831161088757829003601f168201915b5050505050905090565b600081600073ffffffffffffffffffffffffffffffffffffffff166007600083815260200190815260200160002060009054906101000a900473ffffffffffffffffffffffffffffffffffffffff1673ffffffffffffffffffffffffffffffffffffffff1603610953576040517f08c379a000000000000000000000000000000000000000000000000000000000815260040161094a9061400f565b60405180910390fd5b6009600084815260200190815260200160002060009054906101000a900473ffffffffffffffffffffffffffffffffffffffff16915050919050565b80600073ffffffffffffffffffffffffffffffffffffffff166007600083815260200190815260200160002060009054906101000a900473ffffffffffffffffffffffffffffffffffffffff1673ffffffffffffffffffffffffffffffffffffffff1603610a32576040517f08c379a0000000000000000000000000000000000000000000000000000000008152600401610a299061400f565b60405180910390fd5b81610a3d3382612132565b80610a4e5750610a4d338261219e565b5b610a8d576040517f08c379a0000000000000000000000000000000000000000000000000000000008152600401610a849061407b565b60405180910390fd5b60006007600085815260200190815260200160002060009054906101000a900473ffffffffffffffffffffffffffffffffffffffff1690508473ffffffffffffffffffffffffffffffffffffffff168173ffffffffffffffffffffffffffffffffffffffff1603610b33576040517f08c379a0000000000000000000000000000000000000000000000000000000008152600401610b2a906140e7565b60405180910390fd5b8473ffffffffffffffffffffffffffffffffffffffff166009600086815260200190815260200160002060009054906101000a900473ffffffffffffffffffffffffffffffffffffffff1673ffffffffffffffffffffffffffffffffffffffff1603610bd4576040517f08c379a0000000000000000000000000000000000000000000000000000000008152600401610bcb90614179565b60405180910390fd5b846009600086815260200190815260200160002060006101000a81548173ffffffffffffffffffffffffffffffffffffffff021916908373ffffffffffffffffffffffffffffffffffffffff1602179055508473ffffffffffffffffffffffffffffffffffffffff168173ffffffffffffffffffffffffffffffffffffffff167f8c5be1e5ebec7d5bd14f71427d1e84f3dd0314c0f7b2291e5b200ac8c7c3b92586604051610c8391906135cd565b60405180910390a35050505050565b60008054906101000a900473ffffffffffffffffffffffffffffffffffffffff1681565b6000600454905090565b600160009054906101000a900473ffffffffffffffffffffffffffffffffffffffff1681565b610d038383836040518060200160405280600081525060006122b9565b505050565b60008073ffffffffffffffffffffffffffffffffffffffff168373ffffffffffffffffffffffffffffffffffffffff1603610d78576040517f08c379a0000000000000000000000000000000000000000000000000000000008152600401610d6f906141e5565b60405180910390fd5b600a60008473ffffffffffffffffffffffffffffffffffffffff1673ffffffffffffffffffffffffffffffffffffffff168152602001908152602001600020805490508210610dfc576040517f08c379a0000000000000000000000000000000000000000000000000000000008152600401610df390614251565b60405180910390fd5b600a60008473ffffffffffffffffffffffffffffffffffffffff1673ffffffffffffffffffffffffffffffffffffffff1681526020019081526020016000208281548110610e4d57610e4c614271565b5b9060005260206000200154905092915050565b60008054906101000a900473ffffffffffffffffffffffffffffffffffffffff1673ffffffffffffffffffffffffffffffffffffffff163373ffffffffffffffffffffffffffffffffffffffff1614610eee576040517f08c379a0000000000000000000000000000000000000000000000000000000008152600401610ee5906142ec565b60405180910390fd5b80600160006101000a81548173ffffffffffffffffffffffffffffffffffffffff021916908373ffffffffffffffffffffffffffffffffffffffff16021790555050565b610f3a61263e565b73ffffffffffffffffffffffffffffffffffffffff16610f58611a77565b73ffffffffffffffffffffffffffffffffffffffff1614610fae576040517f08c379a0000000000000000000000000000000000000000000000000000000008152600401610fa590614358565b60405180910390fd5b610fb781612646565b50565b600081600f8481548110610fd157610fd0614271565b5b90600052602060002090600602016004019080519060200190610ff5929190613206565b506001905092915050565b61101d8383836040518060200160405280600081525060016122b9565b505050565b60006004548210611068576040517f08c379a000000000000000000000000000000000000000000000000000000000815260040161105f90614251565b60405180910390fd5b60056000838152602001908152602001600020549050919050565b60008054906101000a900473ffffffffffffffffffffffffffffffffffffffff1673ffffffffffffffffffffffffffffffffffffffff163373ffffffffffffffffffffffffffffffffffffffff1614611111576040517f08c379a0000000000000000000000000000000000000000000000000000000008152600401611108906142ec565b60405180910390fd5b806000806101000a81548173ffffffffffffffffffffffffffffffffffffffff021916908373ffffffffffffffffffffffffffffffffffffffff16021790555050565b600081600073ffffffffffffffffffffffffffffffffffffffff166007600083815260200190815260200160002060009054906101000a900473ffffffffffffffffffffffffffffffffffffffff1673ffffffffffffffffffffffffffffffffffffffff16036111f9576040517f08c379a00000000000000000000000000000000000000000000000000000000081526004016111f09061400f565b60405180910390fd5b6007600084815260200190815260200160002060009054906101000a900473ffffffffffffffffffffffffffffffffffffffff16915050919050565b61123d61328c565b600f828154811061125157611250614271565b5b90600052602060002090600602016040518060c001604052908160008201805461127a90613f92565b80601f01602080910402602001604051908101604052809291908181526020018280546112a690613f92565b80156112f35780601f106112c8576101008083540402835291602001916112f3565b820191906000526020600020905b8154815290600101906020018083116112d657829003601f168201915b5050505050815260200160018201805461130c90613f92565b80601f016020809104026020016040519081016040528092919081815260200182805461133890613f92565b80156113855780601f1061135a57610100808354040283529160200191611385565b820191906000526020600020905b81548152906001019060200180831161136857829003601f168201915b5050505050815260200160028201805461139e90613f92565b80601f01602080910402602001604051908101604052809291908181526020018280546113ca90613f92565b80156114175780601f106113ec57610100808354040283529160200191611417565b820191906000526020600020905b8154815290600101906020018083116113fa57829003601f168201915b5050505050815260200160038201805480602002602001604051908101604052809291908181526020016000905b828210156114f157838290600052602060002001805461146490613f92565b80601f016020809104026020016040519081016040528092919081815260200182805461149090613f92565b80156114dd5780601f106114b2576101008083540402835291602001916114dd565b820191906000526020600020905b8154815290600101906020018083116114c057829003601f168201915b505050505081526020019060010190611445565b50505050815260200160048201805461150990613f92565b80601f016020809104026020016040519081016040528092919081815260200182805461153590613f92565b80156115825780601f1061155757610100808354040283529160200191611582565b820191906000526020600020905b81548152906001019060200180831161156557829003601f168201915b5050505050815260200160058201805461159b90613f92565b80601f01602080910402602001604051908101604052809291908181526020018280546115c790613f92565b80156116145780601f106115e957610100808354040283529160200191611614565b820191906000526020600020905b8154815290600101906020018083116115f757829003601f168201915b5050505050815250509050919050565b60008073ffffffffffffffffffffffffffffffffffffffff168273ffffffffffffffffffffffffffffffffffffffff1603611694576040517f08c379a000000000000000000000000000000000000000000000000000000000815260040161168b906143c4565b60405180910390fd5b600a60008373ffffffffffffffffffffffffffffffffffffffff1673ffffffffffffffffffffffffffffffffffffffff168152602001908152602001600020805490509050919050565b6116e661263e565b73ffffffffffffffffffffffffffffffffffffffff16611704611a77565b73ffffffffffffffffffffffffffffffffffffffff161461175a576040517f08c379a000000000000000000000000000000000000000000000000000000000815260040161175190614358565b60405180910390fd5b61176460006127df565b565b60008054906101000a900473ffffffffffffffffffffffffffffffffffffffff1673ffffffffffffffffffffffffffffffffffffffff163373ffffffffffffffffffffffffffffffffffffffff16146117f4576040517f08c379a00000000000000000000000000000000000000000000000000000000081526004016117eb906142ec565b60405180910390fd5b801515600260008473ffffffffffffffffffffffffffffffffffffffff1673ffffffffffffffffffffffffffffffffffffffff16815260200190815260200160002060009054906101000a900460ff16151503611886576040517f08c379a000000000000000000000000000000000000000000000000000000000815260040161187d90614430565b60405180910390fd5b80600260008473ffffffffffffffffffffffffffffffffffffffff1673ffffffffffffffffffffffffffffffffffffffff16815260200190815260200160002060006101000a81548160ff0219169083151502179055505050565b6000806040518060c00160405280898152602001888152602001878152602001868152602001858152602001848152509050600f819080600181540180825580915050600190039060005260206000209060060201600090919091909150600082015181600001908051906020019061195b929190613206565b506020820151816001019080519060200190611978929190613206565b506040820151816002019080519060200190611995929190613206565b5060608201518160030190805190602001906119b29291906132c2565b5060808201518160040190805190602001906119cf929190613206565b5060a08201518160050190805190602001906119ec929190613206565b505050611a086001600f805490506128a590919063ffffffff16565b9150611a1489836128ef565b8873ffffffffffffffffffffffffffffffffffffffff16827fbe4d5028ecb11dfb1cbc0c1dd7eed270db43c11a50da18fceb823c9af57a2a7860405160405180910390a350979650505050505050565b600080823b905060008111915050919050565b6000600360009054906101000a900473ffffffffffffffffffffffffffffffffffffffff16905090565b6060600d8054611ab090613f92565b80601f0160208091040260200160405190810160405280929190818152602001828054611adc90613f92565b8015611b295780601f10611afe57610100808354040283529160200191611b29565b820191906000526020600020905b815481529060010190602001808311611b0c57829003601f168201915b5050505050905090565b611b3b61263e565b73ffffffffffffffffffffffffffffffffffffffff16611b59611a77565b73ffffffffffffffffffffffffffffffffffffffff1614611baf576040517f08c379a0000000000000000000000000000000000000000000000000000000008152600401611ba690614358565b60405180910390fd5b611bb881612a55565b50565b801515600860003373ffffffffffffffffffffffffffffffffffffffff1673ffffffffffffffffffffffffffffffffffffffff16815260200190815260200160002060008473ffffffffffffffffffffffffffffffffffffffff1673ffffffffffffffffffffffffffffffffffffffff16815260200190815260200160002060009054906101000a900460ff16151503611c8a576040517f08c379a0000000000000000000000000000000000000000000000000000000008152600401611c819061449c565b60405180910390fd5b80600860003373ffffffffffffffffffffffffffffffffffffffff1673ffffffffffffffffffffffffffffffffffffffff16815260200190815260200160002060008473ffffffffffffffffffffffffffffffffffffffff1673ffffffffffffffffffffffffffffffffffffffff16815260200190815260200160002060006101000a81548160ff0219169083151502179055508173ffffffffffffffffffffffffffffffffffffffff163373ffffffffffffffffffffffffffffffffffffffff167f17307eab39ab6107e8899845ad3d59bd9653f200f220920489ca2b5937696c3183604051611d7b9190613d04565b60405180910390a35050565b60026020528060005260406000206000915054906101000a900460ff1681565b60008073ffffffffffffffffffffffffffffffffffffffff168273ffffffffffffffffffffffffffffffffffffffff1603611e17576040517f08c379a0000000000000000000000000000000000000000000000000000000008152600401611e0e90614508565b60405180910390fd5b6000601060008473ffffffffffffffffffffffffffffffffffffffff1673ffffffffffffffffffffffffffffffffffffffff16815260200190815260200160002060009054906101000a900460ff16905080915050919050565b6060600073ffffffffffffffffffffffffffffffffffffffff168273ffffffffffffffffffffffffffffffffffffffff1603611ee2576040517f08c379a0000000000000000000000000000000000000000000000000000000008152600401611ed9906141e5565b60405180910390fd5b600a60008373ffffffffffffffffffffffffffffffffffffffff1673ffffffffffffffffffffffffffffffffffffffff168152602001908152602001600020805480602002602001604051908101604052809291908181526020018280548015611f6b57602002820191906000526020600020905b815481526020019060010190808311611f57575b50505050509050919050565b611f858484848460016122b9565b50505050565b6000600454905090565b6060611fa082612bef565b9050919050565b6000600860008473ffffffffffffffffffffffffffffffffffffffff1673ffffffffffffffffffffffffffffffffffffffff16815260200190815260200160002060008373ffffffffffffffffffffffffffffffffffffffff1673ffffffffffffffffffffffffffffffffffffffff16815260200190815260200160002060009054906101000a900460ff16905092915050565b61204361263e565b73ffffffffffffffffffffffffffffffffffffffff16612061611a77565b73ffffffffffffffffffffffffffffffffffffffff16146120b7576040517f08c379a00000000000000000000000000000000000000000000000000000000081526004016120ae90614358565b60405180910390fd5b600073ffffffffffffffffffffffffffffffffffffffff168173ffffffffffffffffffffffffffffffffffffffff1603612126576040517f08c379a000000000000000000000000000000000000000000000000000000000815260040161211d9061459a565b60405180910390fd5b61212f816127df565b50565b60008273ffffffffffffffffffffffffffffffffffffffff166007600084815260200190815260200160002060009054906101000a900473ffffffffffffffffffffffffffffffffffffffff1673ffffffffffffffffffffffffffffffffffffffff1614905092915050565b6000600260008473ffffffffffffffffffffffffffffffffffffffff1673ffffffffffffffffffffffffffffffffffffffff16815260200190815260200160002060009054906101000a900460ff16806122b15750600860006007600085815260200190815260200160002060009054906101000a900473ffffffffffffffffffffffffffffffffffffffff1673ffffffffffffffffffffffffffffffffffffffff1673ffffffffffffffffffffffffffffffffffffffff16815260200190815260200160002060008473ffffffffffffffffffffffffffffffffffffffff1673ffffffffffffffffffffffffffffffffffffffff16815260200190815260200160002060009054906101000a900460ff165b905092915050565b82600073ffffffffffffffffffffffffffffffffffffffff166007600083815260200190815260200160002060009054906101000a900473ffffffffffffffffffffffffffffffffffffffff1673ffffffffffffffffffffffffffffffffffffffff160361235c576040517f08c379a00000000000000000000000000000000000000000000000000000000081526004016123539061400f565b60405180910390fd5b6123668685612132565b6123a5576040517f08c379a000000000000000000000000000000000000000000000000000000000815260040161239c90614606565b60405180910390fd5b600073ffffffffffffffffffffffffffffffffffffffff168573ffffffffffffffffffffffffffffffffffffffff1603612414576040517f08c379a000000000000000000000000000000000000000000000000000000000815260040161240b90614508565b60405180910390fd5b8573ffffffffffffffffffffffffffffffffffffffff168573ffffffffffffffffffffffffffffffffffffffff1603612482576040517f08c379a000000000000000000000000000000000000000000000000000000000815260040161247990614698565b60405180910390fd5b61248c8685612c94565b6009600085815260200190815260200160002060006101000a81549073ffffffffffffffffffffffffffffffffffffffff0219169055600073ffffffffffffffffffffffffffffffffffffffff168673ffffffffffffffffffffffffffffffffffffffff167f8c5be1e5ebec7d5bd14f71427d1e84f3dd0314c0f7b2291e5b200ac8c7c3b9258660405161252091906135cd565b60405180910390a36125328585612fb9565b818015612544575061254385611a64565b5b156125d1578473ffffffffffffffffffffffffffffffffffffffff1663150b7a0261c350338988886040518663ffffffff1660e01b815260040161258b949392919061470d565b60206040518083038160008887f11580156125aa573d6000803e3d6000fd5b50505050506040513d601f19601f820116820180604052508101906125cf91906147b1565b505b8473ffffffffffffffffffffffffffffffffffffffff168673ffffffffffffffffffffffffffffffffffffffff167fddf252ad1be2c89b69c2b068fc378daa952ba7f163c4a11628f55a4df523b3ef8660405161262e91906135cd565b60405180910390a3505050505050565b600033905090565b600073ffffffffffffffffffffffffffffffffffffffff168173ffffffffffffffffffffffffffffffffffffffff16036126b5576040517f08c379a00000000000000000000000000000000000000000000000000000000081526004016126ac90614508565b60405180910390fd5b601060008273ffffffffffffffffffffffffffffffffffffffff1673ffffffffffffffffffffffffffffffffffffffff16815260200190815260200160002060009054906101000a900460ff16612741576040517f08c379a00000000000000000000000000000000000000000000000000000000081526004016127389061482a565b60405180910390fd5b6000601060008373ffffffffffffffffffffffffffffffffffffffff1673ffffffffffffffffffffffffffffffffffffffff16815260200190815260200160002060006101000a81548160ff0219169083151502179055508073ffffffffffffffffffffffffffffffffffffffff167fe94479a9f7e1952cc78f2d6baab678adc1b772d936c6583def489e524cb6669260405160405180910390a250565b6000600360009054906101000a900473ffffffffffffffffffffffffffffffffffffffff16905081600360006101000a81548173ffffffffffffffffffffffffffffffffffffffff021916908373ffffffffffffffffffffffffffffffffffffffff1602179055508173ffffffffffffffffffffffffffffffffffffffff168173ffffffffffffffffffffffffffffffffffffffff167f8be0079c531659141344cd1fd0a4f28419497f9722a3daafe3b4186f6b6457e060405160405180910390a35050565b60006128e783836040518060400160405280601e81526020017f536166654d6174683a207375627472616374696f6e206f766572666c6f770000815250613144565b905092915050565b600073ffffffffffffffffffffffffffffffffffffffff166007600083815260200190815260200160002060009054906101000a900473ffffffffffffffffffffffffffffffffffffffff1673ffffffffffffffffffffffffffffffffffffffff1614612991576040517f08c379a000000000000000000000000000000000000000000000000000000000815260040161298890614896565b60405180910390fd5b61299b8282612fb9565b806005600060045481526020019081526020016000208190555060045460066000838152602001908152602001600020819055506129e560016004546131a890919063ffffffff16565b6004819055508173ffffffffffffffffffffffffffffffffffffffff16600073ffffffffffffffffffffffffffffffffffffffff167fddf252ad1be2c89b69c2b068fc378daa952ba7f163c4a11628f55a4df523b3ef83604051612a4991906135cd565b60405180910390a35050565b600073ffffffffffffffffffffffffffffffffffffffff168173ffffffffffffffffffffffffffffffffffffffff1603612ac4576040517f08c379a0000000000000000000000000000000000000000000000000000000008152600401612abb90614508565b60405180910390fd5b601060008273ffffffffffffffffffffffffffffffffffffffff1673ffffffffffffffffffffffffffffffffffffffff16815260200190815260200160002060009054906101000a900460ff1615612b51576040517f08c379a0000000000000000000000000000000000000000000000000000000008152600401612b4890614902565b60405180910390fd5b6001601060008373ffffffffffffffffffffffffffffffffffffffff1673ffffffffffffffffffffffffffffffffffffffff16815260200190815260200160002060006101000a81548160ff0219169083151502179055508073ffffffffffffffffffffffffffffffffffffffff167f6ae172837ea30b801fbfcdd4108aa1d5bf8ff775444fd70256b44e6bf3dfc3f660405160405180910390a250565b6060600e60008381526020019081526020016000208054612c0f90613f92565b80601f0160208091040260200160405190810160405280929190818152602001828054612c3b90613f92565b8015612c885780601f10612c5d57610100808354040283529160200191612c88565b820191906000526020600020905b815481529060010190602001808311612c6b57829003601f168201915b50505050509050919050565b600073ffffffffffffffffffffffffffffffffffffffff168273ffffffffffffffffffffffffffffffffffffffff1603612d03576040517f08c379a0000000000000000000000000000000000000000000000000000000008152600401612cfa90614508565b60405180910390fd5b6000600b60008381526020019081526020016000205490506000612d736001600a60008773ffffffffffffffffffffffffffffffffffffffff1673ffffffffffffffffffffffffffffffffffffffff168152602001908152602001600020805490506128a590919063ffffffff16565b90506000600a60008673ffffffffffffffffffffffffffffffffffffffff1673ffffffffffffffffffffffffffffffffffffffff1681526020019081526020016000208281548110612dc857612dc7614271565b5b9060005260206000200154905060006007600086815260200190815260200160002060006101000a81548173ffffffffffffffffffffffffffffffffffffffff021916908373ffffffffffffffffffffffffffffffffffffffff16021790555080600a60008773ffffffffffffffffffffffffffffffffffffffff1673ffffffffffffffffffffffffffffffffffffffff1681526020019081526020016000208481548110612e7a57612e79614271565b5b906000526020600020018190555082600b600083815260200190815260200160002081905550600a60008673ffffffffffffffffffffffffffffffffffffffff1673ffffffffffffffffffffffffffffffffffffffff168152602001908152602001600020805480612eef57612eee614922565b5b600190038181906000526020600020016000905590556000600a60008773ffffffffffffffffffffffffffffffffffffffff1673ffffffffffffffffffffffffffffffffffffffff1681526020019081526020016000208054905003612f9b57600a60008673ffffffffffffffffffffffffffffffffffffffff1673ffffffffffffffffffffffffffffffffffffffff1681526020019081526020016000206000612f9a9190613322565b5b600b6000858152602001908152602001600020600090555050505050565b600073ffffffffffffffffffffffffffffffffffffffff168273ffffffffffffffffffffffffffffffffffffffff1603613028576040517f08c379a000000000000000000000000000000000000000000000000000000000815260040161301f90614508565b60405180910390fd5b816007600083815260200190815260200160002060006101000a81548173ffffffffffffffffffffffffffffffffffffffff021916908373ffffffffffffffffffffffffffffffffffffffff1602179055506000600a60008473ffffffffffffffffffffffffffffffffffffffff1673ffffffffffffffffffffffffffffffffffffffff168152602001908152602001600020805490509050600a60008473ffffffffffffffffffffffffffffffffffffffff1673ffffffffffffffffffffffffffffffffffffffff16815260200190815260200160002082908060018154018082558091505060019003906000526020600020016000909190919091505580600b600084815260200190815260200160002081905550505050565b600083831115829061318c576040517f08c379a0000000000000000000000000000000000000000000000000000000008152600401613183919061345d565b60405180910390fd5b506000838561319b9190614980565b9050809150509392505050565b60008082846131b791906149b4565b9050838110156131fc576040517f08c379a00000000000000000000000000000000000000000000000000000000081526004016131f390614a56565b60405180910390fd5b8091505092915050565b82805461321290613f92565b90600052602060002090601f016020900481019282613234576000855561327b565b82601f1061324d57805160ff191683800117855561327b565b8280016001018555821561327b579182015b8281111561327a57825182559160200191906001019061325f565b5b5090506132889190613343565b5090565b6040518060c001604052806060815260200160608152602001606081526020016060815260200160608152602001606081525090565b828054828255906000526020600020908101928215613311579160200282015b82811115613310578251829080519060200190613300929190613206565b50916020019190600101906132e2565b5b50905061331e9190613360565b5090565b50805460008255906000526020600020908101906133409190613343565b50565b5b8082111561335c576000816000905550600101613344565b5090565b5b8082111561338057600081816133779190613384565b50600101613361565b5090565b50805461339090613f92565b6000825580601f106133a257506133c1565b601f0160209004906000526020600020908101906133c09190613343565b5b50565b600081519050919050565b600082825260208201905092915050565b60005b838110156133fe5780820151818401526020810190506133e3565b8381111561340d576000848401525b50505050565b6000601f19601f8301169050919050565b600061342f826133c4565b61343981856133cf565b93506134498185602086016133e0565b61345281613413565b840191505092915050565b600060208201905081810360008301526134778184613424565b905092915050565b6000604051905090565b600080fd5b600080fd5b6000819050919050565b6134a681613493565b81146134b157600080fd5b50565b6000813590506134c38161349d565b92915050565b6000602082840312156134df576134de613489565b5b60006134ed848285016134b4565b91505092915050565b600073ffffffffffffffffffffffffffffffffffffffff82169050919050565b6000613521826134f6565b9050919050565b61353181613516565b82525050565b600060208201905061354c6000830184613528565b92915050565b61355b81613516565b811461356657600080fd5b50565b60008135905061357881613552565b92915050565b6000806040838503121561359557613594613489565b5b60006135a385828601613569565b92505060206135b4858286016134b4565b9150509250929050565b6135c781613493565b82525050565b60006020820190506135e260008301846135be565b92915050565b6000819050919050565b600061360d613608613603846134f6565b6135e8565b6134f6565b9050919050565b600061361f826135f2565b9050919050565b600061363182613614565b9050919050565b61364181613626565b82525050565b600060208201905061365c6000830184613638565b92915050565b60008060006060848603121561367b5761367a613489565b5b600061368986828701613569565b935050602061369a86828701613569565b92505060406136ab868287016134b4565b9150509250925092565b6000602082840312156136cb576136ca613489565b5b60006136d984828501613569565b91505092915050565b600080fd5b600080fd5b7f4e487b7100000000000000000000000000000000000000000000000000000000600052604160045260246000fd5b61372482613413565b810181811067ffffffffffffffff82111715613743576137426136ec565b5b80604052505050565b600061375661347f565b9050613762828261371b565b919050565b600067ffffffffffffffff821115613782576137816136ec565b5b61378b82613413565b9050602081019050919050565b82818337600083830152505050565b60006137ba6137b584613767565b61374c565b9050828152602081018484840111156137d6576137d56136e7565b5b6137e1848285613798565b509392505050565b600082601f8301126137fe576137fd6136e2565b5b813561380e8482602086016137a7565b91505092915050565b6000806040838503121561382e5761382d613489565b5b600061383c858286016134b4565b925050602083013567ffffffffffffffff81111561385d5761385c61348e565b5b613869858286016137e9565b9150509250929050565b600082825260208201905092915050565b600061388f826133c4565b6138998185613873565b93506138a98185602086016133e0565b6138b281613413565b840191505092915050565b600081519050919050565b600082825260208201905092915050565b6000819050602082019050919050565b60006138f58383613884565b905092915050565b6000602082019050919050565b6000613915826138bd565b61391f81856138c8565b935083602082028501613931856138d9565b8060005b8581101561396d578484038952815161394e85826138e9565b9450613959836138fd565b925060208a01995050600181019050613935565b50829750879550505050505092915050565b600060c083016000830151848203600086015261399c8282613884565b915050602083015184820360208601526139b68282613884565b915050604083015184820360408601526139d08282613884565b915050606083015184820360608601526139ea828261390a565b91505060808301518482036080860152613a048282613884565b91505060a083015184820360a0860152613a1e8282613884565b9150508091505092915050565b60006020820190508181036000830152613a45818461397f565b905092915050565b60008115159050919050565b613a6281613a4d565b8114613a6d57600080fd5b50565b600081359050613a7f81613a59565b92915050565b60008060408385031215613a9c57613a9b613489565b5b6000613aaa85828601613569565b9250506020613abb85828601613a70565b9150509250929050565b600067ffffffffffffffff821115613ae057613adf6136ec565b5b602082029050602081019050919050565b600080fd5b6000613b09613b0484613ac5565b61374c565b90508083825260208201905060208402830185811115613b2c57613b2b613af1565b5b835b81811015613b7357803567ffffffffffffffff811115613b5157613b506136e2565b5b808601613b5e89826137e9565b85526020850194505050602081019050613b2e565b5050509392505050565b600082601f830112613b9257613b916136e2565b5b8135613ba2848260208601613af6565b91505092915050565b600080600080600080600060e0888a031215613bca57613bc9613489565b5b6000613bd88a828b01613569565b975050602088013567ffffffffffffffff811115613bf957613bf861348e565b5b613c058a828b016137e9565b965050604088013567ffffffffffffffff811115613c2657613c2561348e565b5b613c328a828b016137e9565b955050606088013567ffffffffffffffff811115613c5357613c5261348e565b5b613c5f8a828b016137e9565b945050608088013567ffffffffffffffff811115613c8057613c7f61348e565b5b613c8c8a828b01613b7d565b93505060a088013567ffffffffffffffff811115613cad57613cac61348e565b5b613cb98a828b016137e9565b92505060c088013567ffffffffffffffff811115613cda57613cd961348e565b5b613ce68a828b016137e9565b91505092959891949750929550565b613cfe81613a4d565b82525050565b6000602082019050613d196000830184613cf5565b92915050565b600081519050919050565b600082825260208201905092915050565b6000819050602082019050919050565b613d5481613493565b82525050565b6000613d668383613d4b565b60208301905092915050565b6000602082019050919050565b6000613d8a82613d1f565b613d948185613d2a565b9350613d9f83613d3b565b8060005b83811015613dd0578151613db78882613d5a565b9750613dc283613d72565b925050600181019050613da3565b5085935050505092915050565b60006020820190508181036000830152613df78184613d7f565b905092915050565b600067ffffffffffffffff821115613e1a57613e196136ec565b5b613e2382613413565b9050602081019050919050565b6000613e43613e3e84613dff565b61374c565b905082815260208101848484011115613e5f57613e5e6136e7565b5b613e6a848285613798565b509392505050565b600082601f830112613e8757613e866136e2565b5b8135613e97848260208601613e30565b91505092915050565b60008060008060808587031215613eba57613eb9613489565b5b6000613ec887828801613569565b9450506020613ed987828801613569565b9350506040613eea878288016134b4565b925050606085013567ffffffffffffffff811115613f0b57613f0a61348e565b5b613f1787828801613e72565b91505092959194509250565b60008060408385031215613f3a57613f39613489565b5b6000613f4885828601613569565b9250506020613f5985828601613569565b9150509250929050565b7f4e487b7100000000000000000000000000000000000000000000000000000000600052602260045260246000fd5b60006002820490506001821680613faa57607f821691505b602082108103613fbd57613fbc613f63565b5b50919050565b7f4e465420494420686173206e6f206f776e657273686970000000000000000000600082015250565b6000613ff96017836133cf565b915061400482613fc3565b602082019050919050565b6000602082019050818103600083015261402881613fec565b9050919050565b7f6e6f74204e4654204944206f776e6572206f72206167656e7400000000000000600082015250565b60006140656019836133cf565b91506140708261402f565b602082019050919050565b6000602082019050818103600083015261409481614058565b9050919050565b7f616c7265616479206f776e6572206f66204e4654204944000000000000000000600082015250565b60006140d16017836133cf565b91506140dc8261409b565b602082019050919050565b60006020820190508181036000830152614100816140c4565b9050919050565b7f616c726561647920617574686f72697a65642075736572206f66204e4654204960008201527f4400000000000000000000000000000000000000000000000000000000000000602082015250565b60006141636021836133cf565b915061416e82614107565b604082019050919050565b6000602082019050818103600083015261419281614156565b9050919050565b7f696e76616c6964206f776e657220616464726573730000000000000000000000600082015250565b60006141cf6015836133cf565b91506141da82614199565b602082019050919050565b600060208201905081810360008301526141fe816141c2565b9050919050565b7f696e76616c696420546f6b656e20696e64657800000000000000000000000000600082015250565b600061423b6013836133cf565b915061424682614205565b602082019050919050565b6000602082019050818103600083015261426a8161422e565b9050919050565b7f4e487b7100000000000000000000000000000000000000000000000000000000600052603260045260246000fd5b7f6e6f7420612077686974656c697374206d616e61676572000000000000000000600082015250565b60006142d66017836133cf565b91506142e1826142a0565b602082019050919050565b60006020820190508181036000830152614305816142c9565b9050919050565b7f4f776e61626c653a2063616c6c6572206973206e6f7420746865206f776e6572600082015250565b60006143426020836133cf565b915061434d8261430c565b602082019050919050565b6000602082019050818103600083015261437181614335565b9050919050565b7f696e76616c696420757365722061646472657373000000000000000000000000600082015250565b60006143ae6014836133cf565b91506143b982614378565b602082019050919050565b600060208201905081810360008301526143dd816143a1565b9050919050565b7f5265706561742073657474696e67000000000000000000000000000000000000600082015250565b600061441a600e836133cf565b9150614425826143e4565b602082019050919050565b600060208201905081810360008301526144498161440d565b9050919050565b7f746865206167656e7420686173206265656e2073657420757000000000000000600082015250565b60006144866019836133cf565b915061449182614450565b602082019050919050565b600060208201905081810360008301526144b581614479565b9050919050565b7f696e76616c696420616464726573730000000000000000000000000000000000600082015250565b60006144f2600f836133cf565b91506144fd826144bc565b602082019050919050565b60006020820190508181036000830152614521816144e5565b9050919050565b7f4f776e61626c653a206e6577206f776e657220697320746865207a65726f206160008201527f6464726573730000000000000000000000000000000000000000000000000000602082015250565b60006145846026836133cf565b915061458f82614528565b604082019050919050565b600060208201905081810360008301526145b381614577565b9050919050565b7f6e6f74204e4654204944206f776e657200000000000000000000000000000000600082015250565b60006145f06010836133cf565b91506145fb826145ba565b602082019050919050565b6000602082019050818103600083015261461f816145e3565b9050919050565b7f746f2061646472657373206973207468652073616d652061732066726f6d206160008201527f6464726573730000000000000000000000000000000000000000000000000000602082015250565b60006146826026836133cf565b915061468d82614626565b604082019050919050565b600060208201905081810360008301526146b181614675565b9050919050565b600081519050919050565b600082825260208201905092915050565b60006146df826146b8565b6146e981856146c3565b93506146f98185602086016133e0565b61470281613413565b840191505092915050565b60006080820190506147226000830187613528565b61472f6020830186613528565b61473c60408301856135be565b818103606083015261474e81846146d4565b905095945050505050565b60007fffffffff0000000000000000000000000000000000000000000000000000000082169050919050565b61478e81614759565b811461479957600080fd5b50565b6000815190506147ab81614785565b92915050565b6000602082840312156147c7576147c6613489565b5b60006147d58482850161479c565b91505092915050565b7f6e6f7420746865206d696e746572206f66204e46540000000000000000000000600082015250565b60006148146015836133cf565b915061481f826147de565b602082019050919050565b6000602082019050818103600083015261484381614807565b9050919050565b7f4e465420494420616c726561647920686173206f776e65727368697000000000600082015250565b6000614880601c836133cf565b915061488b8261484a565b602082019050919050565b600060208201905081810360008301526148af81614873565b9050919050565b7f616c7265616479206d696e746572206f66204e46540000000000000000000000600082015250565b60006148ec6015836133cf565b91506148f7826148b6565b602082019050919050565b6000602082019050818103600083015261491b816148df565b9050919050565b7f4e487b7100000000000000000000000000000000000000000000000000000000600052603160045260246000fd5b7f4e487b7100000000000000000000000000000000000000000000000000000000600052601160045260246000fd5b600061498b82613493565b915061499683613493565b9250828210156149a9576149a8614951565b5b828203905092915050565b60006149bf82613493565b91506149ca83613493565b9250827fffffffffffffffffffffffffffffffffffffffffffffffffffffffffffffffff038211156149ff576149fe614951565b5b828201905092915050565b7f536166654d6174683a206164646974696f6e206f766572666c6f770000000000600082015250565b6000614a40601b836133cf565b9150614a4b82614a0a565b602082019050919050565b60006020820190508181036000830152614a6f81614a33565b905091905056fea26469706673582212208cc8fe9cf532a4ea4381482759c7edc8f1649c901725cabcefd75ae0cbe5b7b364736f6c634300080d0033",
  "immutableReferences": {},
  "source": "// SPDX-License-Identifier: MIT\npragma solidity >=0.6.10 <0.9.0;\n\nimport \"./SafeMath.sol\";\n\nimport \"./FlowInsightERC721BaseEnumerable.sol\";\nimport \"./FlowInsightERC721NFTMetadata.sol\";\n\n// solium-disable-next-line no-empty-blocks\ncontract FlowInsightERC721NFT is FlowInsightERC721BaseEnumerable, FlowInsightERC721NFTMetadata {\n\n    using SafeMath for uint256;\n\n    event MinterAdded(address indexed account);\n    event MinterRemoved(address indexed account);\n    event NFTCreated(\n        uint256 indexed nft_id,\n        address indexed owner\n    );\n    event UpdateKey(string key);\n    struct FlowInsightNFT {\n        string name;\n        string picURL;\n        string desc;\n        string[] property;\n        string key;\n        string privURL;\n    }\n\n    FlowInsightNFT[] FlowInsight;\n    mapping (address => bool) minter;\n    mapping (uint8 => uint256[]) creatingNFT;\n\n    constructor (\n        string memory _nftName,\n        string memory _nftSymbol\n    ) public\n    {\n        nftName = _nftName;\n        nftSymbol = _nftSymbol;\n\n    }\n\n    function addMinter(address account) public onlyOwner {\n        _addMinter(account);\n    }\n\n    function _addMinter(address account) internal {\n        require(account != address(0), \"invalid address\");\n        require(!minter[account], \"already minter of NFT\");\n\n        minter[account] = true;\n\n        emit MinterAdded(account);\n    }\n\n    function removeMinter(address account) public onlyOwner {\n        _removeMinter(account);\n    }\n\n    function _removeMinter(address account) internal {\n        require(account != address(0), \"invalid address\");\n        require(minter[account], \"not the minter of NFT\");\n\n        minter[account] = false;\n\n        emit MinterRemoved(account);\n    }\n\n    modifier onlyMinter() {\n        require(minter[msg.sender], \"not the minter of NFT\");\n        _;\n    }\n\n    function isMinter(address account) public view returns (bool) {\n        require(account != address(0), \"invalid address\");\n        bool accountIsMinter = minter[account];\n        return accountIsMinter;\n    }\n\n    function getNFTMetadata (uint256 _tokenId) \n        public view \n        returns (FlowInsightNFT memory)\n    {\n        return FlowInsight[_tokenId];\n    }\n\n    // When someone buy this NFT, mint one for him\n    // Add modifier on-sale or off-sale\n    function createNFT(address _to, string memory _name, string memory _picURL, string memory _desc, string[] memory _property, string memory _key, string memory _privURL) public returns (uint256 _FlowInsightId)\n    {\n\n        FlowInsightNFT memory _FlowInsight = FlowInsightNFT(_name, _picURL, _desc, _property, _key, _privURL);\n        FlowInsight.push(_FlowInsight);\n        _FlowInsightId = FlowInsight.length.sub(1);\n        _mint(_to, _FlowInsightId);\n        // _setTokenUri(_FlowInsightId, _tokenURI);\n\n        emit NFTCreated(_FlowInsightId, _to);\n\n        return _FlowInsightId;\n    }\n\n    // Update AES key\n    function updateKey(uint256 _tokenId, string memory _key) public returns (uint flag){\n        FlowInsight[_tokenId].key = _key;\n        return 1;\n    }\n}",
  "sourcePath": "/home/test/truffle-contract/contracts/FlowInsightERC721NFT.sol",
  "compiler": {
    "name": "solc",
    "version": "0.8.13+commit.abaa5c0e.Emscripten.clang"
  },
  "schemaVersion": "3.4.6",
  "updatedAt": "2022-05-26T07:11:48.872Z",
  "devdoc": {
    "kind": "dev",
    "methods": {
      "approve(address,uint256)": {
        "details": "The zero address indicates there is no approved address.Throws unless `msg.sender` is the current NFT owner, or an authorized  operator of the current owner.",
        "params": {
          "_approved": "The new approved NFT controller",
          "_tokenId": "The NFT to approve"
        }
      },
      "balanceOf(address)": {
        "details": "NFTs assigned to the zero address are considered invalid, and this  function throws for queries about the zero address.",
        "params": {
          "_owner": "An address for whom to query the balance"
        },
        "returns": {
          "_0": "The number of NFTs owned by `_owner`, possibly zero"
        }
      },
      "getApproved(uint256)": {
        "details": "Throws if `_tokenId` is not a valid NFT",
        "params": {
          "_tokenId": "The NFT to find the approved address for"
        },
        "returns": {
          "_0": "The approved address for this NFT, or the zero address if there is none"
        }
      },
      "isApprovedForAll(address,address)": {
        "params": {
          "_operator": "The address that acts on behalf of the owner",
          "_owner": "The address that owns the NFTs"
        },
        "returns": {
          "_0": "True if `_operator` is an approved operator for `_owner`, false otherwise"
        }
      },
      "name()": {
        "details": "Returns a descriptive name for a collection of NFTokens.",
        "returns": {
          "_name": "Representing name."
        }
      },
      "owner()": {
        "details": "Returns the address of the current owner."
      },
      "ownerOf(uint256)": {
        "details": "NFTs assigned to zero address are considered invalid, and queries  about them do throw.",
        "params": {
          "_tokenId": "The identifier for an NFT"
        },
        "returns": {
          "_0": "The address of the owner of the NFT"
        }
      },
      "renounceOwnership()": {
        "details": "Leaves the contract without owner. It will not be possible to call `onlyOwner` functions anymore. Can only be called by the current owner. NOTE: Renouncing ownership will leave the contract without an owner, thereby removing any functionality that is only available to the owner."
      },
      "safeTransferFrom(address,address,uint256)": {
        "details": "This works identically to the other function with an extra data parameter,  except this function just sets data to []",
        "params": {
          "_from": "The current owner of the NFT",
          "_to": "The new owner",
          "_tokenId": "The NFT to transfer"
        }
      },
      "safeTransferFrom(address,address,uint256,bytes)": {
        "details": "Throws unless `msg.sender` is the current owner, an authorized  operator, or the approved address for this NFT. Throws if `_from` is  not the current owner. Throws if `_to` is the zero address. Throws if  `_tokenId` is not a valid NFT. When transfer is complete, this function  checks if `_to` is a smart contract (code size > 0). If so, it calls  `onERC721Received` on `_to` and throws if the return value is not  `bytes4(keccak256(\"onERC721Received(address,uint256,bytes)\"))`.",
        "params": {
          "_data": "Additional data with no specified format, sent in call to `_to`",
          "_from": "The current owner of the NFT",
          "_to": "The new owner",
          "_tokenId": "The NFT to transfer"
        }
      },
      "setApprovalForAll(address,bool)": {
        "details": "Emits the ApprovalForAll event",
        "params": {
          "_approved": "True if the operators is approved, false to revoke approval",
          "_operator": "Address to add to the set of authorized operators."
        }
      },
      "symbol()": {
        "details": "Returns an abbreviated name for NFTokens.",
        "returns": {
          "_symbol": "Representing symbol."
        }
      },
      "tokenByIndex(uint256)": {
        "details": "Throws if `_index` >= `totalSupply()`.",
        "params": {
          "_index": "A counter less than `totalSupply()`"
        },
        "returns": {
          "_0": "The token identifier for the `_index`th NFT,  (sort order not specified)"
        }
      },
      "tokenOfOwnerByIndex(address,uint256)": {
        "details": "Throws if `_index` >= `balanceOf(_owner)` or if  `_owner` is the zero address, representing invalid NFTs.",
        "params": {
          "_index": "A counter less than `balanceOf(_owner)`",
          "_owner": "An address where we are interested in NFTs owned by them"
        },
        "returns": {
          "_tokenId": "The token identifier for the `_index`th NFT assigned to `_owner`,   (sort order not specified)"
        }
      },
      "tokenURI(uint256)": {
        "details": "A distinct URI (RFC 3986) for a given NFT.",
        "params": {
          "_tokenId": "Id for which we want uri."
        },
        "returns": {
          "_0": "URI of _tokenId."
        }
      },
      "totalSupply()": {
        "returns": {
          "_0": "A count of valid NFTs tracked by this contract, where each one of  them has an assigned and queryable owner not equal to the zero address"
        }
      },
      "transferFrom(address,address,uint256)": {
        "details": "Throws unless `msg.sender` is the current owner, an authorized  operator, or the approved address for this NFT. Throws if `_from` is  not the current owner. Throws if `_to` is the zero address. Throws if  `_tokenId` is not a valid NFT.",
        "params": {
          "_from": "The current owner of the NFT",
          "_to": "The new owner",
          "_tokenId": "The NFT to transfer"
        }
      },
      "transferOwnership(address)": {
        "details": "Transfers ownership of the contract to a new account (`newOwner`). Can only be called by the current owner."
      }
    },
    "version": 1
  },
  "userdoc": {
    "kind": "user",
    "methods": {
      "approve(address,uint256)": {
        "notice": "Set or reaffirm the approved address for an NFT"
      },
      "balanceOf(address)": {
        "notice": "Count all NFTs assigned to an owner"
      },
      "getApproved(uint256)": {
        "notice": "Get the approved address for a single NFT"
      },
      "isApprovedForAll(address,address)": {
        "notice": "Query if an address is an authorized operator for another address"
      },
      "ownerOf(uint256)": {
        "notice": "Find the owner of an NFT"
      },
      "safeTransferFrom(address,address,uint256)": {
        "notice": "Transfers the ownership of an NFT from one address to another address"
      },
      "safeTransferFrom(address,address,uint256,bytes)": {
        "notice": "Transfers the ownership of an NFT from one address to another address"
      },
      "setApprovalForAll(address,bool)": {
        "notice": "Enable or disable approval for a third party (\"operator\") to manage  all your asset."
      },
      "tokenByIndex(uint256)": {
        "notice": "Enumerate valid NFTs"
      },
      "tokenOfOwnerByIndex(address,uint256)": {
        "notice": "Enumerate NFTs assigned to an owner"
      },
      "totalSupply()": {
        "notice": "Count NFTs tracked by this contract"
      },
      "transferFrom(address,address,uint256)": {
        "notice": "Transfer ownership of an NFT -- THE CALLER IS RESPONSIBLE  TO CONFIRM THAT `_to` IS CAPABLE OF RECEIVING NFTS OR ELSE  THEY MAY BE PERMANENTLY LOST"
      }
    },
    "version": 1
  }
}